{
  "contractName": "DefaultERC721",
  "abi": [
    {
      "inputs": [
        {
          "internalType": "string",
          "name": "_name",
          "type": "string"
        },
        {
          "internalType": "string",
          "name": "_symbol",
          "type": "string"
        }
      ],
      "stateMutability": "nonpayable",
      "type": "constructor"
    },
    {
      "anonymous": false,
      "inputs": [
        {
          "indexed": true,
          "internalType": "address",
          "name": "owner",
          "type": "address"
        },
        {
          "indexed": true,
          "internalType": "address",
          "name": "approved",
          "type": "address"
        },
        {
          "indexed": true,
          "internalType": "uint256",
          "name": "tokenId",
          "type": "uint256"
        }
      ],
      "name": "Approval",
      "type": "event"
    },
    {
      "anonymous": false,
      "inputs": [
        {
          "indexed": true,
          "internalType": "address",
          "name": "owner",
          "type": "address"
        },
        {
          "indexed": true,
          "internalType": "address",
          "name": "operator",
          "type": "address"
        },
        {
          "indexed": false,
          "internalType": "bool",
          "name": "approved",
          "type": "bool"
        }
      ],
      "name": "ApprovalForAll",
      "type": "event"
    },
    {
      "anonymous": false,
      "inputs": [
        {
          "indexed": true,
          "internalType": "address",
          "name": "from",
          "type": "address"
        },
        {
          "indexed": true,
          "internalType": "address",
          "name": "to",
          "type": "address"
        },
        {
          "indexed": true,
          "internalType": "uint256",
          "name": "tokenId",
          "type": "uint256"
        }
      ],
      "name": "Transfer",
      "type": "event"
    },
    {
      "inputs": [
        {
          "internalType": "address",
          "name": "to",
          "type": "address"
        },
        {
          "internalType": "uint256",
          "name": "tokenId",
          "type": "uint256"
        }
      ],
      "name": "approve",
      "outputs": [],
      "stateMutability": "nonpayable",
      "type": "function"
    },
    {
      "inputs": [
        {
          "internalType": "address",
          "name": "owner",
          "type": "address"
        }
      ],
      "name": "balanceOf",
      "outputs": [
        {
          "internalType": "uint256",
          "name": "",
          "type": "uint256"
        }
      ],
      "stateMutability": "view",
      "type": "function",
      "constant": true
    },
    {
      "inputs": [],
      "name": "currentSupply",
      "outputs": [
        {
          "internalType": "uint256",
          "name": "",
          "type": "uint256"
        }
      ],
      "stateMutability": "view",
      "type": "function",
      "constant": true
    },
    {
      "inputs": [
        {
          "internalType": "uint256",
          "name": "tokenId",
          "type": "uint256"
        }
      ],
      "name": "getApproved",
      "outputs": [
        {
          "internalType": "address",
          "name": "",
          "type": "address"
        }
      ],
      "stateMutability": "view",
      "type": "function",
      "constant": true
    },
    {
      "inputs": [
        {
          "internalType": "address",
          "name": "owner",
          "type": "address"
        },
        {
          "internalType": "address",
          "name": "operator",
          "type": "address"
        }
      ],
      "name": "isApprovedForAll",
      "outputs": [
        {
          "internalType": "bool",
          "name": "",
          "type": "bool"
        }
      ],
      "stateMutability": "view",
      "type": "function",
      "constant": true
    },
    {
      "inputs": [],
      "name": "name",
      "outputs": [
        {
          "internalType": "string",
          "name": "",
          "type": "string"
        }
      ],
      "stateMutability": "view",
      "type": "function",
      "constant": true
    },
    {
      "inputs": [
        {
          "internalType": "uint256",
          "name": "tokenId",
          "type": "uint256"
        }
      ],
      "name": "ownerOf",
      "outputs": [
        {
          "internalType": "address",
          "name": "",
          "type": "address"
        }
      ],
      "stateMutability": "view",
      "type": "function",
      "constant": true
    },
    {
      "inputs": [
        {
          "internalType": "address",
          "name": "from",
          "type": "address"
        },
        {
          "internalType": "address",
          "name": "to",
          "type": "address"
        },
        {
          "internalType": "uint256",
          "name": "tokenId",
          "type": "uint256"
        }
      ],
      "name": "safeTransferFrom",
      "outputs": [],
      "stateMutability": "nonpayable",
      "type": "function"
    },
    {
      "inputs": [
        {
          "internalType": "address",
          "name": "from",
          "type": "address"
        },
        {
          "internalType": "address",
          "name": "to",
          "type": "address"
        },
        {
          "internalType": "uint256",
          "name": "tokenId",
          "type": "uint256"
        },
        {
          "internalType": "bytes",
          "name": "data",
          "type": "bytes"
        }
      ],
      "name": "safeTransferFrom",
      "outputs": [],
      "stateMutability": "nonpayable",
      "type": "function"
    },
    {
      "inputs": [
        {
          "internalType": "address",
          "name": "operator",
          "type": "address"
        },
        {
          "internalType": "bool",
          "name": "approved",
          "type": "bool"
        }
      ],
      "name": "setApprovalForAll",
      "outputs": [],
      "stateMutability": "nonpayable",
      "type": "function"
    },
    {
      "inputs": [
        {
          "internalType": "bytes4",
          "name": "interfaceId",
          "type": "bytes4"
        }
      ],
      "name": "supportsInterface",
      "outputs": [
        {
          "internalType": "bool",
          "name": "",
          "type": "bool"
        }
      ],
      "stateMutability": "view",
      "type": "function",
      "constant": true
    },
    {
      "inputs": [],
      "name": "symbol",
      "outputs": [
        {
          "internalType": "string",
          "name": "",
          "type": "string"
        }
      ],
      "stateMutability": "view",
      "type": "function",
      "constant": true
    },
    {
      "inputs": [
        {
          "internalType": "uint256",
          "name": "tokenId",
          "type": "uint256"
        }
      ],
      "name": "tokenURI",
      "outputs": [
        {
          "internalType": "string",
          "name": "",
          "type": "string"
        }
      ],
      "stateMutability": "view",
      "type": "function",
      "constant": true
    },
    {
      "inputs": [
        {
          "internalType": "address",
          "name": "from",
          "type": "address"
        },
        {
          "internalType": "address",
          "name": "to",
          "type": "address"
        },
        {
          "internalType": "uint256",
          "name": "tokenId",
          "type": "uint256"
        }
      ],
      "name": "transferFrom",
      "outputs": [],
      "stateMutability": "nonpayable",
      "type": "function"
    },
    {
      "inputs": [
        {
          "internalType": "address",
          "name": "_to",
          "type": "address"
        }
      ],
      "name": "mint",
      "outputs": [],
      "stateMutability": "nonpayable",
      "type": "function"
    }
  ],
  "bytecode": "0x608060405260006006553480156200001657600080fd5b506040516200284b3803806200284b83398181016040528101906200003c91906200019c565b81818160009080519060200190620000569291906200007a565b5080600190805190602001906200006f9291906200007a565b50505050506200037f565b8280546200008890620002a4565b90600052602060002090601f016020900481019282620000ac5760008555620000f8565b82601f10620000c757805160ff1916838001178555620000f8565b82800160010185558215620000f8579182015b82811115620000f7578251825591602001919060010190620000da565b5b5090506200010791906200010b565b5090565b5b80821115620001265760008160009055506001016200010c565b5090565b6000620001416200013b8462000238565b6200020f565b9050828152602081018484840111156200015a57600080fd5b620001678482856200026e565b509392505050565b600082601f8301126200018157600080fd5b8151620001938482602086016200012a565b91505092915050565b60008060408385031215620001b057600080fd5b600083015167ffffffffffffffff811115620001cb57600080fd5b620001d9858286016200016f565b925050602083015167ffffffffffffffff811115620001f757600080fd5b62000205858286016200016f565b9150509250929050565b60006200021b6200022e565b9050620002298282620002da565b919050565b6000604051905090565b600067ffffffffffffffff8211156200025657620002556200033f565b5b62000261826200036e565b9050602081019050919050565b60005b838110156200028e57808201518184015260208101905062000271565b838111156200029e576000848401525b50505050565b60006002820490506001821680620002bd57607f821691505b60208210811415620002d457620002d362000310565b5b50919050565b620002e5826200036e565b810181811067ffffffffffffffff821117156200030757620003066200033f565b5b80604052505050565b7f4e487b7100000000000000000000000000000000000000000000000000000000600052602260045260246000fd5b7f4e487b7100000000000000000000000000000000000000000000000000000000600052604160045260246000fd5b6000601f19601f8301169050919050565b6124bc806200038f6000396000f3fe608060405234801561001057600080fd5b50600436106100f55760003560e01c80636a62784211610097578063a22cb46511610066578063a22cb46514610284578063b88d4fde146102a0578063c87b56dd146102bc578063e985e9c5146102ec576100f5565b80636a627842146101fc57806370a0823114610218578063771282f61461024857806395d89b4114610266576100f5565b8063095ea7b3116100d3578063095ea7b31461017857806323b872dd1461019457806342842e0e146101b05780636352211e146101cc576100f5565b806301ffc9a7146100fa57806306fdde031461012a578063081812fc14610148575b600080fd5b610114600480360381019061010f919061189a565b61031c565b6040516101219190611bf1565b60405180910390f35b6101326103fe565b60405161013f9190611c0c565b60405180910390f35b610162600480360381019061015d91906118ec565b610490565b60405161016f9190611b8a565b60405180910390f35b610192600480360381019061018d919061185e565b6104d6565b005b6101ae60048036038101906101a99190611758565b6105ee565b005b6101ca60048036038101906101c59190611758565b61064e565b005b6101e660048036038101906101e191906118ec565b61066e565b6040516101f39190611b8a565b60405180910390f35b610216600480360381019061021191906116f3565b610720565b005b610232600480360381019061022d91906116f3565b610755565b60405161023f9190611d8e565b60405180910390f35b61025061080d565b60405161025d9190611d8e565b60405180910390f35b61026e610813565b60405161027b9190611c0c565b60405180910390f35b61029e60048036038101906102999190611822565b6108a5565b005b6102ba60048036038101906102b591906117a7565b6108bb565b005b6102d660048036038101906102d191906118ec565b61091d565b6040516102e39190611c0c565b60405180910390f35b6103066004803603810190610301919061171c565b610985565b6040516103139190611bf1565b60405180910390f35b60007f80ac58cd000000000000000000000000000000000000000000000000000000007bffffffffffffffffffffffffffffffffffffffffffffffffffffffff1916827bffffffffffffffffffffffffffffffffffffffffffffffffffffffff191614806103e757507f5b5e139f000000000000000000000000000000000000000000000000000000007bffffffffffffffffffffffffffffffffffffffffffffffffffffffff1916827bffffffffffffffffffffffffffffffffffffffffffffffffffffffff1916145b806103f757506103f682610a19565b5b9050919050565b60606000805461040d90611fb3565b80601f016020809104026020016040519081016040528092919081815260200182805461043990611fb3565b80156104865780601f1061045b57610100808354040283529160200191610486565b820191906000526020600020905b81548152906001019060200180831161046957829003601f168201915b5050505050905090565b600061049b82610a83565b6004600083815260200190815260200160002060009054906101000a900473ffffffffffffffffffffffffffffffffffffffff169050919050565b60006104e18261066e565b90508073ffffffffffffffffffffffffffffffffffffffff168373ffffffffffffffffffffffffffffffffffffffff161415610552576040517f08c379a000000000000000000000000000000000000000000000000000000000815260040161054990611d4e565b60405180910390fd5b8073ffffffffffffffffffffffffffffffffffffffff16610571610ace565b73ffffffffffffffffffffffffffffffffffffffff1614806105a0575061059f8161059a610ace565b610985565b5b6105df576040517f08c379a00000000000000000000000000000000000000000000000000000000081526004016105d690611cee565b60405180910390fd5b6105e98383610ad6565b505050565b6105ff6105f9610ace565b82610b8f565b61063e576040517f08c379a000000000000000000000000000000000000000000000000000000000815260040161063590611d6e565b60405180910390fd5b610649838383610c24565b505050565b610669838383604051806020016040528060008152506108bb565b505050565b6000806002600084815260200190815260200160002060009054906101000a900473ffffffffffffffffffffffffffffffffffffffff169050600073ffffffffffffffffffffffffffffffffffffffff168173ffffffffffffffffffffffffffffffffffffffff161415610717576040517f08c379a000000000000000000000000000000000000000000000000000000000815260040161070e90611d2e565b60405180910390fd5b80915050919050565b6107388160016006546107339190611e42565b610e8b565b60016006600082825461074b9190611e42565b9250508190555050565b60008073ffffffffffffffffffffffffffffffffffffffff168273ffffffffffffffffffffffffffffffffffffffff1614156107c6576040517f08c379a00000000000000000000000000000000000000000000000000000000081526004016107bd90611cce565b60405180910390fd5b600360008373ffffffffffffffffffffffffffffffffffffffff1673ffffffffffffffffffffffffffffffffffffffff168152602001908152602001600020549050919050565b60065481565b60606001805461082290611fb3565b80601f016020809104026020016040519081016040528092919081815260200182805461084e90611fb3565b801561089b5780601f106108705761010080835404028352916020019161089b565b820191906000526020600020905b81548152906001019060200180831161087e57829003601f168201915b5050505050905090565b6108b76108b0610ace565b8383611065565b5050565b6108cc6108c6610ace565b83610b8f565b61090b576040517f08c379a000000000000000000000000000000000000000000000000000000000815260040161090290611d6e565b60405180910390fd5b610917848484846111d2565b50505050565b606061092882610a83565b600061093261122e565b90506000815111610952576040518060200160405280600081525061097d565b8061095c84611245565b60405160200161096d929190611b66565b6040516020818303038152906040525b915050919050565b6000600560008473ffffffffffffffffffffffffffffffffffffffff1673ffffffffffffffffffffffffffffffffffffffff16815260200190815260200160002060008373ffffffffffffffffffffffffffffffffffffffff1673ffffffffffffffffffffffffffffffffffffffff16815260200190815260200160002060009054906101000a900460ff16905092915050565b60007f01ffc9a7000000000000000000000000000000000000000000000000000000007bffffffffffffffffffffffffffffffffffffffffffffffffffffffff1916827bffffffffffffffffffffffffffffffffffffffffffffffffffffffff1916149050919050565b610a8c816113f2565b610acb576040517f08c379a0000000000000000000000000000000000000000000000000000000008152600401610ac290611d2e565b60405180910390fd5b50565b600033905090565b816004600083815260200190815260200160002060006101000a81548173ffffffffffffffffffffffffffffffffffffffff021916908373ffffffffffffffffffffffffffffffffffffffff160217905550808273ffffffffffffffffffffffffffffffffffffffff16610b498361066e565b73ffffffffffffffffffffffffffffffffffffffff167f8c5be1e5ebec7d5bd14f71427d1e84f3dd0314c0f7b2291e5b200ac8c7c3b92560405160405180910390a45050565b600080610b9b8361066e565b90508073ffffffffffffffffffffffffffffffffffffffff168473ffffffffffffffffffffffffffffffffffffffff161480610bdd5750610bdc8185610985565b5b80610c1b57508373ffffffffffffffffffffffffffffffffffffffff16610c0384610490565b73ffffffffffffffffffffffffffffffffffffffff16145b91505092915050565b8273ffffffffffffffffffffffffffffffffffffffff16610c448261066e565b73ffffffffffffffffffffffffffffffffffffffff1614610c9a576040517f08c379a0000000000000000000000000000000000000000000000000000000008152600401610c9190611c4e565b60405180910390fd5b600073ffffffffffffffffffffffffffffffffffffffff168273ffffffffffffffffffffffffffffffffffffffff161415610d0a576040517f08c379a0000000000000000000000000000000000000000000000000000000008152600401610d0190611c8e565b60405180910390fd5b610d1583838361145e565b610d20600082610ad6565b6001600360008573ffffffffffffffffffffffffffffffffffffffff1673ffffffffffffffffffffffffffffffffffffffff1681526020019081526020016000206000828254610d709190611ec9565b925050819055506001600360008473ffffffffffffffffffffffffffffffffffffffff1673ffffffffffffffffffffffffffffffffffffffff1681526020019081526020016000206000828254610dc79190611e42565b92505081905550816002600083815260200190815260200160002060006101000a81548173ffffffffffffffffffffffffffffffffffffffff021916908373ffffffffffffffffffffffffffffffffffffffff160217905550808273ffffffffffffffffffffffffffffffffffffffff168473ffffffffffffffffffffffffffffffffffffffff167fddf252ad1be2c89b69c2b068fc378daa952ba7f163c4a11628f55a4df523b3ef60405160405180910390a4610e86838383611463565b505050565b600073ffffffffffffffffffffffffffffffffffffffff168273ffffffffffffffffffffffffffffffffffffffff161415610efb576040517f08c379a0000000000000000000000000000000000000000000000000000000008152600401610ef290611d0e565b60405180910390fd5b610f04816113f2565b15610f44576040517f08c379a0000000000000000000000000000000000000000000000000000000008152600401610f3b90611c6e565b60405180910390fd5b610f506000838361145e565b6001600360008473ffffffffffffffffffffffffffffffffffffffff1673ffffffffffffffffffffffffffffffffffffffff1681526020019081526020016000206000828254610fa09190611e42565b92505081905550816002600083815260200190815260200160002060006101000a81548173ffffffffffffffffffffffffffffffffffffffff021916908373ffffffffffffffffffffffffffffffffffffffff160217905550808273ffffffffffffffffffffffffffffffffffffffff16600073ffffffffffffffffffffffffffffffffffffffff167fddf252ad1be2c89b69c2b068fc378daa952ba7f163c4a11628f55a4df523b3ef60405160405180910390a461106160008383611463565b5050565b8173ffffffffffffffffffffffffffffffffffffffff168373ffffffffffffffffffffffffffffffffffffffff1614156110d4576040517f08c379a00000000000000000000000000000000000000000000000000000000081526004016110cb90611cae565b60405180910390fd5b80600560008573ffffffffffffffffffffffffffffffffffffffff1673ffffffffffffffffffffffffffffffffffffffff16815260200190815260200160002060008473ffffffffffffffffffffffffffffffffffffffff1673ffffffffffffffffffffffffffffffffffffffff16815260200190815260200160002060006101000a81548160ff0219169083151502179055508173ffffffffffffffffffffffffffffffffffffffff168373ffffffffffffffffffffffffffffffffffffffff167f17307eab39ab6107e8899845ad3d59bd9653f200f220920489ca2b5937696c31836040516111c59190611bf1565b60405180910390a3505050565b6111dd848484610c24565b6111e984848484611468565b611228576040517f08c379a000000000000000000000000000000000000000000000000000000000815260040161121f90611c2e565b60405180910390fd5b50505050565b606060405180602001604052806000815250905090565b6060600082141561128d576040518060400160405280600181526020017f300000000000000000000000000000000000000000000000000000000000000081525090506113ed565b600082905060005b600082146112bf5780806112a890612016565b915050600a826112b89190611e98565b9150611295565b60008167ffffffffffffffff811115611301577f4e487b7100000000000000000000000000000000000000000000000000000000600052604160045260246000fd5b6040519080825280601f01601f1916602001820160405280156113335781602001600182028036833780820191505090505b5090505b600085146113e65760018261134c9190611ec9565b9150600a8561135b919061205f565b60306113679190611e42565b60f81b8183815181106113a3577f4e487b7100000000000000000000000000000000000000000000000000000000600052603260045260246000fd5b60200101907effffffffffffffffffffffffffffffffffffffffffffffffffffffffffffff1916908160001a905350600a856113df9190611e98565b9450611337565b8093505050505b919050565b60008073ffffffffffffffffffffffffffffffffffffffff166002600084815260200190815260200160002060009054906101000a900473ffffffffffffffffffffffffffffffffffffffff1673ffffffffffffffffffffffffffffffffffffffff1614159050919050565b505050565b505050565b60006114898473ffffffffffffffffffffffffffffffffffffffff166115ff565b156115f2578373ffffffffffffffffffffffffffffffffffffffff1663150b7a026114b2610ace565b8786866040518563ffffffff1660e01b81526004016114d49493929190611ba5565b602060405180830381600087803b1580156114ee57600080fd5b505af192505050801561151f57506040513d601f19601f8201168201806040525081019061151c91906118c3565b60015b6115a2573d806000811461154f576040519150601f19603f3d011682016040523d82523d6000602084013e611554565b606091505b5060008151141561159a576040517f08c379a000000000000000000000000000000000000000000000000000000000815260040161159190611c2e565b60405180910390fd5b805181602001fd5b63150b7a0260e01b7bffffffffffffffffffffffffffffffffffffffffffffffffffffffff1916817bffffffffffffffffffffffffffffffffffffffffffffffffffffffff1916149150506115f7565b600190505b949350505050565b6000808273ffffffffffffffffffffffffffffffffffffffff163b119050919050565b600061163561163084611dce565b611da9565b90508281526020810184848401111561164d57600080fd5b611658848285611f71565b509392505050565b60008135905061166f8161242a565b92915050565b60008135905061168481612441565b92915050565b60008135905061169981612458565b92915050565b6000815190506116ae81612458565b92915050565b600082601f8301126116c557600080fd5b81356116d5848260208601611622565b91505092915050565b6000813590506116ed8161246f565b92915050565b60006020828403121561170557600080fd5b600061171384828501611660565b91505092915050565b6000806040838503121561172f57600080fd5b600061173d85828601611660565b925050602061174e85828601611660565b9150509250929050565b60008060006060848603121561176d57600080fd5b600061177b86828701611660565b935050602061178c86828701611660565b925050604061179d868287016116de565b9150509250925092565b600080600080608085870312156117bd57600080fd5b60006117cb87828801611660565b94505060206117dc87828801611660565b93505060406117ed878288016116de565b925050606085013567ffffffffffffffff81111561180a57600080fd5b611816878288016116b4565b91505092959194509250565b6000806040838503121561183557600080fd5b600061184385828601611660565b925050602061185485828601611675565b9150509250929050565b6000806040838503121561187157600080fd5b600061187f85828601611660565b9250506020611890858286016116de565b9150509250929050565b6000602082840312156118ac57600080fd5b60006118ba8482850161168a565b91505092915050565b6000602082840312156118d557600080fd5b60006118e38482850161169f565b91505092915050565b6000602082840312156118fe57600080fd5b600061190c848285016116de565b91505092915050565b61191e81611efd565b82525050565b61192d81611f0f565b82525050565b600061193e82611dff565b6119488185611e15565b9350611958818560208601611f80565b6119618161214c565b840191505092915050565b600061197782611e0a565b6119818185611e26565b9350611991818560208601611f80565b61199a8161214c565b840191505092915050565b60006119b082611e0a565b6119ba8185611e37565b93506119ca818560208601611f80565b80840191505092915050565b60006119e3603283611e26565b91506119ee8261215d565b604082019050919050565b6000611a06602583611e26565b9150611a11826121ac565b604082019050919050565b6000611a29601c83611e26565b9150611a34826121fb565b602082019050919050565b6000611a4c602483611e26565b9150611a5782612224565b604082019050919050565b6000611a6f601983611e26565b9150611a7a82612273565b602082019050919050565b6000611a92602983611e26565b9150611a9d8261229c565b604082019050919050565b6000611ab5603e83611e26565b9150611ac0826122eb565b604082019050919050565b6000611ad8602083611e26565b9150611ae38261233a565b602082019050919050565b6000611afb601883611e26565b9150611b0682612363565b602082019050919050565b6000611b1e602183611e26565b9150611b298261238c565b604082019050919050565b6000611b41602e83611e26565b9150611b4c826123db565b604082019050919050565b611b6081611f67565b82525050565b6000611b7282856119a5565b9150611b7e82846119a5565b91508190509392505050565b6000602082019050611b9f6000830184611915565b92915050565b6000608082019050611bba6000830187611915565b611bc76020830186611915565b611bd46040830185611b57565b8181036060830152611be68184611933565b905095945050505050565b6000602082019050611c066000830184611924565b92915050565b60006020820190508181036000830152611c26818461196c565b905092915050565b60006020820190508181036000830152611c47816119d6565b9050919050565b60006020820190508181036000830152611c67816119f9565b9050919050565b60006020820190508181036000830152611c8781611a1c565b9050919050565b60006020820190508181036000830152611ca781611a3f565b9050919050565b60006020820190508181036000830152611cc781611a62565b9050919050565b60006020820190508181036000830152611ce781611a85565b9050919050565b60006020820190508181036000830152611d0781611aa8565b9050919050565b60006020820190508181036000830152611d2781611acb565b9050919050565b60006020820190508181036000830152611d4781611aee565b9050919050565b60006020820190508181036000830152611d6781611b11565b9050919050565b60006020820190508181036000830152611d8781611b34565b9050919050565b6000602082019050611da36000830184611b57565b92915050565b6000611db3611dc4565b9050611dbf8282611fe5565b919050565b6000604051905090565b600067ffffffffffffffff821115611de957611de861211d565b5b611df28261214c565b9050602081019050919050565b600081519050919050565b600081519050919050565b600082825260208201905092915050565b600082825260208201905092915050565b600081905092915050565b6000611e4d82611f67565b9150611e5883611f67565b9250827fffffffffffffffffffffffffffffffffffffffffffffffffffffffffffffffff03821115611e8d57611e8c612090565b5b828201905092915050565b6000611ea382611f67565b9150611eae83611f67565b925082611ebe57611ebd6120bf565b5b828204905092915050565b6000611ed482611f67565b9150611edf83611f67565b925082821015611ef257611ef1612090565b5b828203905092915050565b6000611f0882611f47565b9050919050565b60008115159050919050565b60007fffffffff0000000000000000000000000000000000000000000000000000000082169050919050565b600073ffffffffffffffffffffffffffffffffffffffff82169050919050565b6000819050919050565b82818337600083830152505050565b60005b83811015611f9e578082015181840152602081019050611f83565b83811115611fad576000848401525b50505050565b60006002820490506001821680611fcb57607f821691505b60208210811415611fdf57611fde6120ee565b5b50919050565b611fee8261214c565b810181811067ffffffffffffffff8211171561200d5761200c61211d565b5b80604052505050565b600061202182611f67565b91507fffffffffffffffffffffffffffffffffffffffffffffffffffffffffffffffff82141561205457612053612090565b5b600182019050919050565b600061206a82611f67565b915061207583611f67565b925082612085576120846120bf565b5b828206905092915050565b7f4e487b7100000000000000000000000000000000000000000000000000000000600052601160045260246000fd5b7f4e487b7100000000000000000000000000000000000000000000000000000000600052601260045260246000fd5b7f4e487b7100000000000000000000000000000000000000000000000000000000600052602260045260246000fd5b7f4e487b7100000000000000000000000000000000000000000000000000000000600052604160045260246000fd5b6000601f19601f8301169050919050565b7f4552433732313a207472616e7366657220746f206e6f6e20455243373231526560008201527f63656976657220696d706c656d656e7465720000000000000000000000000000602082015250565b7f4552433732313a207472616e736665722066726f6d20696e636f72726563742060008201527f6f776e6572000000000000000000000000000000000000000000000000000000602082015250565b7f4552433732313a20746f6b656e20616c7265616479206d696e74656400000000600082015250565b7f4552433732313a207472616e7366657220746f20746865207a65726f2061646460008201527f7265737300000000000000000000000000000000000000000000000000000000602082015250565b7f4552433732313a20617070726f766520746f2063616c6c657200000000000000600082015250565b7f4552433732313a2061646472657373207a65726f206973206e6f74206120766160008201527f6c6964206f776e65720000000000000000000000000000000000000000000000602082015250565b7f4552433732313a20617070726f76652063616c6c6572206973206e6f7420746f60008201527f6b656e206f776e6572206e6f7220617070726f76656420666f7220616c6c0000602082015250565b7f4552433732313a206d696e7420746f20746865207a65726f2061646472657373600082015250565b7f4552433732313a20696e76616c696420746f6b656e2049440000000000000000600082015250565b7f4552433732313a20617070726f76616c20746f2063757272656e74206f776e6560008201527f7200000000000000000000000000000000000000000000000000000000000000602082015250565b7f4552433732313a2063616c6c6572206973206e6f7420746f6b656e206f776e6560008201527f72206e6f7220617070726f766564000000000000000000000000000000000000602082015250565b61243381611efd565b811461243e57600080fd5b50565b61244a81611f0f565b811461245557600080fd5b50565b61246181611f1b565b811461246c57600080fd5b50565b61247881611f67565b811461248357600080fd5b5056fea2646970667358221220f541992269e33290f7b553a07387f973d87789664790c7a7ffa2ae6f8d91cb7e64736f6c63430008040033",
  "immutableReferences": {},
  "source": "// SPDX-License-Identifier: MIT\n\npragma solidity ^0.8.4;\n\nimport \"@openzeppelin/contracts/token/ERC721/ERC721.sol\";\n\ncontract DefaultERC721 is ERC721 {\n    uint256 public currentSupply = 0;\n\n    constructor(string memory _name, string memory _symbol) ERC721(_name, _symbol) {}\n\n    function mint(address _to) public {\n        _mint(_to, currentSupply + 1);\n        currentSupply += 1;\n    }\n}",
  "sourcePath": "/home/sergiu/Desktop/FInalPresentation/Debug/contracts/DefaultERC721.sol",
  "compiler": {
    "name": "solc",
    "version": "0.8.4+commit.c7e474f2.Emscripten.clang"
  },
  "schemaVersion": "3.4.9",
  "updatedAt": "2022-09-07T19:27:39.048Z",
  "networkType": "ethereum",
  "devdoc": {
    "kind": "dev",
    "methods": {
      "approve(address,uint256)": {
        "details": "See {IERC721-approve}."
      },
      "balanceOf(address)": {
        "details": "See {IERC721-balanceOf}."
      },
      "getApproved(uint256)": {
        "details": "See {IERC721-getApproved}."
      },
      "isApprovedForAll(address,address)": {
        "details": "See {IERC721-isApprovedForAll}."
      },
      "name()": {
        "details": "See {IERC721Metadata-name}."
      },
      "ownerOf(uint256)": {
        "details": "See {IERC721-ownerOf}."
      },
      "safeTransferFrom(address,address,uint256)": {
        "details": "See {IERC721-safeTransferFrom}."
      },
      "safeTransferFrom(address,address,uint256,bytes)": {
        "details": "See {IERC721-safeTransferFrom}."
      },
      "setApprovalForAll(address,bool)": {
        "details": "See {IERC721-setApprovalForAll}."
      },
      "supportsInterface(bytes4)": {
        "details": "See {IERC165-supportsInterface}."
      },
      "symbol()": {
        "details": "See {IERC721Metadata-symbol}."
      },
      "tokenURI(uint256)": {
        "details": "See {IERC721Metadata-tokenURI}."
      },
      "transferFrom(address,address,uint256)": {
        "details": "See {IERC721-transferFrom}."
      }
    },
    "version": 1
  },
  "userdoc": {
    "kind": "user",
    "methods": {},
    "version": 1
  }
}