{
  "contractName": "TipsyERC721Marketplace",
  "abi": [
    {
      "inputs": [
        {
          "internalType": "address",
          "name": "_erc20",
          "type": "address"
        },
        {
          "internalType": "address",
          "name": "_owner",
          "type": "address"
        },
        {
          "internalType": "address",
          "name": "_dev",
          "type": "address"
        }
      ],
      "stateMutability": "nonpayable",
      "type": "constructor"
    },
    {
      "anonymous": false,
      "inputs": [
        {
          "indexed": true,
          "internalType": "address",
          "name": "previousOwner",
          "type": "address"
        },
        {
          "indexed": true,
          "internalType": "address",
          "name": "newOwner",
          "type": "address"
        }
      ],
      "name": "OwnershipTransferred",
      "type": "event"
    },
    {
      "anonymous": false,
      "inputs": [
        {
          "indexed": false,
          "internalType": "address",
          "name": "account",
          "type": "address"
        }
      ],
      "name": "Paused",
      "type": "event"
    },
    {
      "anonymous": false,
      "inputs": [
        {
          "indexed": true,
          "internalType": "uint256",
          "name": "assetId",
          "type": "uint256"
        },
        {
          "indexed": true,
          "internalType": "address",
          "name": "seller",
          "type": "address"
        },
        {
          "indexed": false,
          "internalType": "address",
          "name": "nftAddress",
          "type": "address"
        }
      ],
      "name": "TokenCancelled",
      "type": "event"
    },
    {
      "anonymous": false,
      "inputs": [
        {
          "indexed": true,
          "internalType": "uint256",
          "name": "assetId",
          "type": "uint256"
        },
        {
          "indexed": true,
          "internalType": "address",
          "name": "seller",
          "type": "address"
        },
        {
          "indexed": false,
          "internalType": "address",
          "name": "nftAddress",
          "type": "address"
        },
        {
          "indexed": false,
          "internalType": "uint256",
          "name": "priceInWei",
          "type": "uint256"
        }
      ],
      "name": "TokenListed",
      "type": "event"
    },
    {
      "anonymous": false,
      "inputs": [
        {
          "components": [
            {
              "internalType": "address",
              "name": "seller",
              "type": "address"
            },
            {
              "internalType": "uint256",
              "name": "tokenId",
              "type": "uint256"
            },
            {
              "internalType": "address",
              "name": "nftContract",
              "type": "address"
            },
            {
              "internalType": "uint256",
              "name": "price",
              "type": "uint256"
            },
            {
              "internalType": "uint256",
              "name": "listIndex",
              "type": "uint256"
            }
          ],
          "indexed": false,
          "internalType": "struct TipsyERC721Marketplace.Order",
          "name": "order",
          "type": "tuple"
        },
        {
          "indexed": false,
          "internalType": "address",
          "name": "newOwner",
          "type": "address"
        }
      ],
      "name": "TokenSold",
      "type": "event"
    },
    {
      "anonymous": false,
      "inputs": [
        {
          "indexed": false,
          "internalType": "address",
          "name": "account",
          "type": "address"
        }
      ],
      "name": "Unpaused",
      "type": "event"
    },
    {
      "inputs": [],
      "name": "ERC721_Interface",
      "outputs": [
        {
          "internalType": "bytes4",
          "name": "",
          "type": "bytes4"
        }
      ],
      "stateMutability": "view",
      "type": "function",
      "constant": true
    },
    {
      "inputs": [],
      "name": "dev",
      "outputs": [
        {
          "internalType": "address",
          "name": "",
          "type": "address"
        }
      ],
      "stateMutability": "view",
      "type": "function",
      "constant": true
    },
    {
      "inputs": [],
      "name": "erc20",
      "outputs": [
        {
          "internalType": "contract IERC20",
          "name": "",
          "type": "address"
        }
      ],
      "stateMutability": "view",
      "type": "function",
      "constant": true
    },
    {
      "inputs": [
        {
          "internalType": "address",
          "name": "",
          "type": "address"
        },
        {
          "internalType": "uint256",
          "name": "",
          "type": "uint256"
        }
      ],
      "name": "orderByAssetId",
      "outputs": [
        {
          "internalType": "address",
          "name": "seller",
          "type": "address"
        },
        {
          "internalType": "uint256",
          "name": "tokenId",
          "type": "uint256"
        },
        {
          "internalType": "address",
          "name": "nftContract",
          "type": "address"
        },
        {
          "internalType": "uint256",
          "name": "price",
          "type": "uint256"
        },
        {
          "internalType": "uint256",
          "name": "listIndex",
          "type": "uint256"
        }
      ],
      "stateMutability": "view",
      "type": "function",
      "constant": true
    },
    {
      "inputs": [],
      "name": "owner",
      "outputs": [
        {
          "internalType": "address",
          "name": "",
          "type": "address"
        }
      ],
      "stateMutability": "view",
      "type": "function",
      "constant": true
    },
    {
      "inputs": [],
      "name": "paused",
      "outputs": [
        {
          "internalType": "bool",
          "name": "",
          "type": "bool"
        }
      ],
      "stateMutability": "view",
      "type": "function",
      "constant": true
    },
    {
      "inputs": [],
      "name": "renounceOwnership",
      "outputs": [],
      "stateMutability": "nonpayable",
      "type": "function"
    },
    {
      "inputs": [],
      "name": "saleFeePerc",
      "outputs": [
        {
          "internalType": "uint16",
          "name": "",
          "type": "uint16"
        }
      ],
      "stateMutability": "view",
      "type": "function",
      "constant": true
    },
    {
      "inputs": [
        {
          "internalType": "address",
          "name": "newOwner",
          "type": "address"
        }
      ],
      "name": "transferOwnership",
      "outputs": [],
      "stateMutability": "nonpayable",
      "type": "function"
    },
    {
      "inputs": [
        {
          "internalType": "address",
          "name": "",
          "type": "address"
        }
      ],
      "name": "whitelist",
      "outputs": [
        {
          "internalType": "bool",
          "name": "",
          "type": "bool"
        }
      ],
      "stateMutability": "view",
      "type": "function",
      "constant": true
    },
    {
      "inputs": [
        {
          "internalType": "address",
          "name": "nftContract",
          "type": "address"
        },
        {
          "internalType": "uint256",
          "name": "tokenId",
          "type": "uint256"
        },
        {
          "internalType": "uint256",
          "name": "price",
          "type": "uint256"
        }
      ],
      "name": "sell",
      "outputs": [],
      "stateMutability": "nonpayable",
      "type": "function"
    },
    {
      "inputs": [
        {
          "internalType": "address",
          "name": "nftContract",
          "type": "address"
        },
        {
          "internalType": "uint256",
          "name": "tokenId",
          "type": "uint256"
        }
      ],
      "name": "cancelListing",
      "outputs": [],
      "stateMutability": "nonpayable",
      "type": "function"
    },
    {
      "inputs": [
        {
          "internalType": "address",
          "name": "nftContract",
          "type": "address"
        },
        {
          "internalType": "uint256",
          "name": "tokenId",
          "type": "uint256"
        }
      ],
      "name": "buy",
      "outputs": [
        {
          "components": [
            {
              "internalType": "address",
              "name": "seller",
              "type": "address"
            },
            {
              "internalType": "uint256",
              "name": "tokenId",
              "type": "uint256"
            },
            {
              "internalType": "address",
              "name": "nftContract",
              "type": "address"
            },
            {
              "internalType": "uint256",
              "name": "price",
              "type": "uint256"
            },
            {
              "internalType": "uint256",
              "name": "listIndex",
              "type": "uint256"
            }
          ],
          "internalType": "struct TipsyERC721Marketplace.Order",
          "name": "",
          "type": "tuple"
        }
      ],
      "stateMutability": "nonpayable",
      "type": "function"
    },
    {
      "inputs": [
        {
          "internalType": "uint16",
          "name": "newsaleFeePerc",
          "type": "uint16"
        }
      ],
      "name": "setSaleFee",
      "outputs": [],
      "stateMutability": "nonpayable",
      "type": "function"
    },
    {
      "inputs": [
        {
          "internalType": "address",
          "name": "newDev",
          "type": "address"
        }
      ],
      "name": "changeDevAddress",
      "outputs": [],
      "stateMutability": "nonpayable",
      "type": "function"
    },
    {
      "inputs": [
        {
          "internalType": "address",
          "name": "whitelistAddress",
          "type": "address"
        }
      ],
      "name": "addWhitelistAddress",
      "outputs": [],
      "stateMutability": "nonpayable",
      "type": "function"
    },
    {
      "inputs": [
        {
          "internalType": "address",
          "name": "whitelistAddress",
          "type": "address"
        }
      ],
      "name": "removeWhitelistAddress",
      "outputs": [],
      "stateMutability": "nonpayable",
      "type": "function"
    },
    {
      "inputs": [],
      "name": "pauseListings",
      "outputs": [],
      "stateMutability": "nonpayable",
      "type": "function"
    },
    {
      "inputs": [],
      "name": "unpauseListings",
      "outputs": [],
      "stateMutability": "nonpayable",
      "type": "function"
    },
    {
      "inputs": [],
      "name": "getOrderKeys",
      "outputs": [
        {
          "components": [
            {
              "internalType": "address",
              "name": "nftContract",
              "type": "address"
            },
            {
              "internalType": "uint256",
              "name": "tokenId",
              "type": "uint256"
            }
          ],
          "internalType": "struct TipsyERC721Marketplace.OrderKey[]",
          "name": "",
          "type": "tuple[]"
        }
      ],
      "stateMutability": "view",
      "type": "function",
      "constant": true
    },
    {
      "inputs": [],
      "name": "orderListSize",
      "outputs": [
        {
          "internalType": "uint256",
          "name": "",
          "type": "uint256"
        }
      ],
      "stateMutability": "view",
      "type": "function",
      "constant": true
    },
    {
      "inputs": [
        {
          "internalType": "address",
          "name": "nftContract",
          "type": "address"
        },
        {
          "internalType": "uint256",
          "name": "tokenId",
          "type": "uint256"
        }
      ],
      "name": "orderListContains",
      "outputs": [
        {
          "internalType": "bool",
          "name": "",
          "type": "bool"
        }
      ],
      "stateMutability": "view",
      "type": "function",
      "constant": true
    },
    {
      "inputs": [
        {
          "internalType": "uint256",
          "name": "_index",
          "type": "uint256"
        }
      ],
      "name": "getOrderByIndex",
      "outputs": [
        {
          "components": [
            {
              "internalType": "address",
              "name": "seller",
              "type": "address"
            },
            {
              "internalType": "uint256",
              "name": "tokenId",
              "type": "uint256"
            },
            {
              "internalType": "address",
              "name": "nftContract",
              "type": "address"
            },
            {
              "internalType": "uint256",
              "name": "price",
              "type": "uint256"
            },
            {
              "internalType": "uint256",
              "name": "listIndex",
              "type": "uint256"
            }
          ],
          "internalType": "struct TipsyERC721Marketplace.Order",
          "name": "",
          "type": "tuple"
        }
      ],
      "stateMutability": "view",
      "type": "function",
      "constant": true
    },
    {
      "inputs": [
        {
          "internalType": "uint256",
          "name": "start",
          "type": "uint256"
        },
        {
          "internalType": "uint256",
          "name": "end",
          "type": "uint256"
        }
      ],
      "name": "getOrders",
      "outputs": [
        {
          "components": [
            {
              "internalType": "address",
              "name": "seller",
              "type": "address"
            },
            {
              "internalType": "uint256",
              "name": "tokenId",
              "type": "uint256"
            },
            {
              "internalType": "address",
              "name": "nftContract",
              "type": "address"
            },
            {
              "internalType": "uint256",
              "name": "price",
              "type": "uint256"
            },
            {
              "internalType": "uint256",
              "name": "listIndex",
              "type": "uint256"
            }
          ],
          "internalType": "struct TipsyERC721Marketplace.Order[]",
          "name": "",
          "type": "tuple[]"
        }
      ],
      "stateMutability": "view",
      "type": "function",
      "constant": true
    }
  ],
  "bytecode": "0x60806040526103e8600660146101000a81548161ffff021916908361ffff1602179055503480156200003057600080fd5b5060405162004bc538038062004bc5833981810160405281019062000056919062000367565b620000766200006a6200013360201b60201c565b6200013b60201b60201c565b60008060146101000a81548160ff02191690831515021790555060018081905550620000a882620001ff60201b60201c565b82600560006101000a81548173ffffffffffffffffffffffffffffffffffffffff021916908373ffffffffffffffffffffffffffffffffffffffff16021790555080600660006101000a81548173ffffffffffffffffffffffffffffffffffffffff021916908373ffffffffffffffffffffffffffffffffffffffff16021790555050505062000526565b600033905090565b60008060009054906101000a900473ffffffffffffffffffffffffffffffffffffffff169050816000806101000a81548173ffffffffffffffffffffffffffffffffffffffff021916908373ffffffffffffffffffffffffffffffffffffffff1602179055508173ffffffffffffffffffffffffffffffffffffffff168173ffffffffffffffffffffffffffffffffffffffff167f8be0079c531659141344cd1fd0a4f28419497f9722a3daafe3b4186f6b6457e060405160405180910390a35050565b6200020f6200029660201b60201c565b600073ffffffffffffffffffffffffffffffffffffffff168173ffffffffffffffffffffffffffffffffffffffff16141562000282576040517f08c379a000000000000000000000000000000000000000000000000000000000815260040162000279906200040b565b60405180910390fd5b62000293816200013b60201b60201c565b50565b620002a66200013360201b60201c565b73ffffffffffffffffffffffffffffffffffffffff16620002cc6200032760201b60201c565b73ffffffffffffffffffffffffffffffffffffffff161462000325576040517f08c379a00000000000000000000000000000000000000000000000000000000081526004016200031c906200042d565b60405180910390fd5b565b60008060009054906101000a900473ffffffffffffffffffffffffffffffffffffffff16905090565b60008151905062000361816200050c565b92915050565b6000806000606084860312156200037d57600080fd5b60006200038d8682870162000350565b9350506020620003a08682870162000350565b9250506040620003b38682870162000350565b9150509250925092565b6000620003cc6026836200044f565b9150620003d98262000494565b604082019050919050565b6000620003f36020836200044f565b91506200040082620004e3565b602082019050919050565b600060208201905081810360008301526200042681620003bd565b9050919050565b600060208201905081810360008301526200044881620003e4565b9050919050565b600082825260208201905092915050565b60006200046d8262000474565b9050919050565b600073ffffffffffffffffffffffffffffffffffffffff82169050919050565b7f4f776e61626c653a206e6577206f776e657220697320746865207a65726f206160008201527f6464726573730000000000000000000000000000000000000000000000000000602082015250565b7f4f776e61626c653a2063616c6c6572206973206e6f7420746865206f776e6572600082015250565b620005178162000460565b81146200052357600080fd5b50565b61468f80620005366000396000f3fe608060405234801561001057600080fd5b50600436106101585760003560e01c806394a7ef15116100c3578063d8f67bff1161007c578063d8f67bff1461038f578063dabe8a71146103bf578063e61f3851146103ef578063e7a431a614610423578063f2fde38b1461042d578063f3d6864b1461044957610158565b806394a7ef15146102bd5780639b19251a146102d9578063b2ddee0614610309578063b7ecbaae14610325578063cc68594314610341578063cce7ec131461035f57610158565b8063715018a611610115578063715018a61461020d578063785e9e86146102175780638da5cb5b146102355780638f72fc771461025357806391cca3db1461028357806392b46390146102a157610158565b8063066a115c1461015d5780632b4c32be1461017b5780634e851136146101995780635c975abb146101b75780636a272462146101d55780636fd58a54146101f1575b600080fd5b610165610453565b6040516101729190613550565b60405180910390f35b610183610512565b60405161019091906135af565b60405180910390f35b6101a161051d565b6040516101ae91906139c9565b60405180910390f35b6101bf610531565b6040516101cc9190613594565b60405180910390f35b6101ef60048036038101906101ea9190612cd0565b610547565b005b61020b60048036038101906102069190612d48565b610bea565b005b610215610c5b565b005b61021f610c6f565b60405161022c91906135ca565b60405180910390f35b61023d610c95565b60405161024a9190613459565b60405180910390f35b61026d60048036038101906102689190612dc3565b610cbe565b60405161027a9190613572565b60405180910390f35b61028b611033565b6040516102989190613459565b60405180910390f35b6102bb60048036038101906102b69190612c42565b611059565b005b6102d760048036038101906102d29190612c42565b61119d565b005b6102f360048036038101906102ee9190612c42565b611209565b6040516103009190613594565b60405180910390f35b610323600480360381019061031e9190612c94565b611229565b005b61033f600480360381019061033a9190612c42565b6114b8565b005b61034961151b565b60405161035691906139e4565b60405180910390f35b61037960048036038101906103749190612c94565b611528565b6040516103869190613985565b60405180910390f35b6103a960048036038101906103a49190612c94565b611ed6565b6040516103b69190613594565b60405180910390f35b6103d960048036038101906103d49190612d71565b611f36565b6040516103e69190613985565b60405180910390f35b61040960048036038101906104049190612c94565b612171565b60405161041a9594939291906134fd565b60405180910390f35b61042b6121f4565b005b61044760048036038101906104429190612c42565b612206565b005b61045161228a565b005b60606003805480602002602001604051908101604052809291908181526020016000905b8282101561050957838290600052602060002090600202016040518060400160405290816000820160009054906101000a900473ffffffffffffffffffffffffffffffffffffffff1673ffffffffffffffffffffffffffffffffffffffff1673ffffffffffffffffffffffffffffffffffffffff16815260200160018201548152505081526020019060010190610477565b50505050905090565b6380ac58cd60e01b81565b600660149054906101000a900461ffff1681565b60008060149054906101000a900460ff16905090565b61054f61229c565b82600460008273ffffffffffffffffffffffffffffffffffffffff1673ffffffffffffffffffffffffffffffffffffffff16815260200190815260200160002060009054906101000a900460ff166105dc576040517f08c379a00000000000000000000000000000000000000000000000000000000081526004016105d390613645565b60405180910390fd5b60026001541415610622576040517f08c379a000000000000000000000000000000000000000000000000000000000815260040161061990613905565b60405180910390fd5b6002600181905550614e2082101561066f576040517f08c379a0000000000000000000000000000000000000000000000000000000008152600401610666906137e5565b60405180910390fd5b600560009054906101000a900473ffffffffffffffffffffffffffffffffffffffff1673ffffffffffffffffffffffffffffffffffffffff166318160ddd6040518163ffffffff1660e01b815260040160206040518083038186803b1580156106d757600080fd5b505afa1580156106eb573d6000803e3d6000fd5b505050506040513d601f19601f8201168201806040525081019061070f9190612d9a565b8210610750576040517f08c379a000000000000000000000000000000000000000000000000000000000815260040161074790613765565b60405180910390fd5b600084905060008173ffffffffffffffffffffffffffffffffffffffff16636352211e866040518263ffffffff1660e01b815260040161079091906139e4565b60206040518083038186803b1580156107a857600080fd5b505afa1580156107bc573d6000803e3d6000fd5b505050506040513d601f19601f820116820180604052508101906107e09190612c6b565b90508073ffffffffffffffffffffffffffffffffffffffff163373ffffffffffffffffffffffffffffffffffffffff1614610850576040517f08c379a000000000000000000000000000000000000000000000000000000000815260040161084790613925565b60405180910390fd5b3073ffffffffffffffffffffffffffffffffffffffff168273ffffffffffffffffffffffffffffffffffffffff1663081812fc876040518263ffffffff1660e01b81526004016108a091906139e4565b60206040518083038186803b1580156108b857600080fd5b505afa1580156108cc573d6000803e3d6000fd5b505050506040513d601f19601f820116820180604052508101906108f09190612c6b565b73ffffffffffffffffffffffffffffffffffffffff16148061099957508173ffffffffffffffffffffffffffffffffffffffff1663e985e9c582306040518363ffffffff1660e01b8152600401610948929190613474565b60206040518083038186803b15801561096057600080fd5b505afa158015610974573d6000803e3d6000fd5b505050506040513d601f19601f820116820180604052508101906109989190612d1f565b5b6109d8576040517f08c379a00000000000000000000000000000000000000000000000000000000081526004016109cf906136c5565b60405180910390fd5b6000600260008873ffffffffffffffffffffffffffffffffffffffff1673ffffffffffffffffffffffffffffffffffffffff16815260200190815260200160002060008781526020019081526020016000209050868160020160006101000a81548173ffffffffffffffffffffffffffffffffffffffff021916908373ffffffffffffffffffffffffffffffffffffffff160217905550338160000160006101000a81548173ffffffffffffffffffffffffffffffffffffffff021916908373ffffffffffffffffffffffffffffffffffffffff160217905550848160030181905550858160010181905550600081600401541415610b8957600360405180604001604052808973ffffffffffffffffffffffffffffffffffffffff16815260200188815250908060018154018082558091505060019003906000526020600020906002020160009091909190915060008201518160000160006101000a81548173ffffffffffffffffffffffffffffffffffffffff021916908373ffffffffffffffffffffffffffffffffffffffff16021790555060208201518160010155505060038054905081600401819055505b8173ffffffffffffffffffffffffffffffffffffffff16867f5cc84d4a94d161aa0cb9f2801c806df8e707192476cfb3d14af480df555c19bd8988604051610bd29291906134d4565b60405180910390a35050506001808190555050505050565b610bf26122e6565b6127108161ffff161115610c3b576040517f08c379a0000000000000000000000000000000000000000000000000000000008152600401610c32906137a5565b60405180910390fd5b80600660146101000a81548161ffff021916908361ffff16021790555050565b610c636122e6565b610c6d6000612364565b565b600560009054906101000a900473ffffffffffffffffffffffffffffffffffffffff1681565b60008060009054906101000a900473ffffffffffffffffffffffffffffffffffffffff16905090565b606082821015610d03576040517f08c379a0000000000000000000000000000000000000000000000000000000008152600401610cfa90613785565b60405180910390fd5b6003805490508210610d4a576040517f08c379a0000000000000000000000000000000000000000000000000000000008152600401610d4190613825565b60405180910390fd5b6000610d60610d598486612428565b600161243e565b905060008167ffffffffffffffff811115610da4577f4e487b7100000000000000000000000000000000000000000000000000000000600052604160045260246000fd5b604051908082528060200260200182016040528015610ddd57816020015b610dca612b69565b815260200190600190039081610dc25790505b50905060005b8281101561102757600060038281548110610e27577f4e487b7100000000000000000000000000000000000000000000000000000000600052603260045260246000fd5b90600052602060002090600202016040518060400160405290816000820160009054906101000a900473ffffffffffffffffffffffffffffffffffffffff1673ffffffffffffffffffffffffffffffffffffffff1673ffffffffffffffffffffffffffffffffffffffff168152602001600182015481525050905060026000826000015173ffffffffffffffffffffffffffffffffffffffff1673ffffffffffffffffffffffffffffffffffffffff1681526020019081526020016000206000826020015181526020019081526020016000206040518060a00160405290816000820160009054906101000a900473ffffffffffffffffffffffffffffffffffffffff1673ffffffffffffffffffffffffffffffffffffffff1673ffffffffffffffffffffffffffffffffffffffff168152602001600182015481526020016002820160009054906101000a900473ffffffffffffffffffffffffffffffffffffffff1673ffffffffffffffffffffffffffffffffffffffff1673ffffffffffffffffffffffffffffffffffffffff16815260200160038201548152602001600482015481525050838381518110611008577f4e487b7100000000000000000000000000000000000000000000000000000000600052603260045260246000fd5b602002602001018190525050808061101f90613c3d565b915050610de3565b50809250505092915050565b600660009054906101000a900473ffffffffffffffffffffffffffffffffffffffff1681565b600660009054906101000a900473ffffffffffffffffffffffffffffffffffffffff1673ffffffffffffffffffffffffffffffffffffffff163373ffffffffffffffffffffffffffffffffffffffff16146110e9576040517f08c379a00000000000000000000000000000000000000000000000000000000081526004016110e0906136a5565b60405180910390fd5b600073ffffffffffffffffffffffffffffffffffffffff168173ffffffffffffffffffffffffffffffffffffffff161415611159576040517f08c379a0000000000000000000000000000000000000000000000000000000008152600401611150906138c5565b60405180910390fd5b80600660006101000a81548173ffffffffffffffffffffffffffffffffffffffff021916908373ffffffffffffffffffffffffffffffffffffffff16021790555050565b6111a56122e6565b6111ae81612454565b6001600460008373ffffffffffffffffffffffffffffffffffffffff1673ffffffffffffffffffffffffffffffffffffffff16815260200190815260200160002060006101000a81548160ff02191690831515021790555050565b60046020528060005260406000206000915054906101000a900460ff1681565b61123161229c565b60008290503373ffffffffffffffffffffffffffffffffffffffff168173ffffffffffffffffffffffffffffffffffffffff16636352211e846040518263ffffffff1660e01b815260040161128691906139e4565b60206040518083038186803b15801561129e57600080fd5b505afa1580156112b2573d6000803e3d6000fd5b505050506040513d601f19601f820116820180604052508101906112d69190612c6b565b73ffffffffffffffffffffffffffffffffffffffff161461132c576040517f08c379a0000000000000000000000000000000000000000000000000000000008152600401611323906138e5565b60405180910390fd5b611336838361258a565b6000600260008573ffffffffffffffffffffffffffffffffffffffff1673ffffffffffffffffffffffffffffffffffffffff16815260200190815260200160002060008481526020019081526020016000206040518060a00160405290816000820160009054906101000a900473ffffffffffffffffffffffffffffffffffffffff1673ffffffffffffffffffffffffffffffffffffffff1673ffffffffffffffffffffffffffffffffffffffff168152602001600182015481526020016002820160009054906101000a900473ffffffffffffffffffffffffffffffffffffffff1673ffffffffffffffffffffffffffffffffffffffff1673ffffffffffffffffffffffffffffffffffffffff168152602001600382015481526020016004820154815250509050806000015173ffffffffffffffffffffffffffffffffffffffff16837fdaed7fe6ee54468a612ace6d0a07ef93f42591bd958d0390bfc9a6e09e93ccc5866040516114aa9190613459565b60405180910390a350505050565b6114c06122e6565b6000600460008373ffffffffffffffffffffffffffffffffffffffff1673ffffffffffffffffffffffffffffffffffffffff16815260200190815260200160002060006101000a81548160ff02191690831515021790555050565b6000600380549050905090565b611530612b69565b61153861229c565b82600460008273ffffffffffffffffffffffffffffffffffffffff1673ffffffffffffffffffffffffffffffffffffffff16815260200190815260200160002060009054906101000a900460ff166115c5576040517f08c379a00000000000000000000000000000000000000000000000000000000081526004016115bc90613645565b60405180910390fd5b6002600154141561160b576040517f08c379a000000000000000000000000000000000000000000000000000000000815260040161160290613905565b60405180910390fd5b60026001819055506000600260008673ffffffffffffffffffffffffffffffffffffffff1673ffffffffffffffffffffffffffffffffffffffff16815260200190815260200160002060008581526020019081526020016000206040518060a00160405290816000820160009054906101000a900473ffffffffffffffffffffffffffffffffffffffff1673ffffffffffffffffffffffffffffffffffffffff1673ffffffffffffffffffffffffffffffffffffffff168152602001600182015481526020016002820160009054906101000a900473ffffffffffffffffffffffffffffffffffffffff1673ffffffffffffffffffffffffffffffffffffffff1673ffffffffffffffffffffffffffffffffffffffff168152602001600382015481526020016004820154815250509050600081608001511415611784576040517f08c379a000000000000000000000000000000000000000000000000000000000815260040161177b906138a5565b60405180910390fd5b6000816000015190506000339050600073ffffffffffffffffffffffffffffffffffffffff168273ffffffffffffffffffffffffffffffffffffffff161415611802576040517f08c379a00000000000000000000000000000000000000000000000000000000081526004016117f990613965565b60405180910390fd5b8073ffffffffffffffffffffffffffffffffffffffff168273ffffffffffffffffffffffffffffffffffffffff161415611871576040517f08c379a000000000000000000000000000000000000000000000000000000000815260040161186890613665565b60405180910390fd5b60008790508073ffffffffffffffffffffffffffffffffffffffff16636352211e85602001516040518263ffffffff1660e01b81526004016118b391906139e4565b60206040518083038186803b1580156118cb57600080fd5b505afa1580156118df573d6000803e3d6000fd5b505050506040513d601f19601f820116820180604052508101906119039190612c6b565b73ffffffffffffffffffffffffffffffffffffffff168373ffffffffffffffffffffffffffffffffffffffff1614611970576040517f08c379a000000000000000000000000000000000000000000000000000000000815260040161196790613885565b60405180910390fd5b6000846060015190506000600660149054906101000a900461ffff1661ffff161115611d1e57600560009054906101000a900473ffffffffffffffffffffffffffffffffffffffff1673ffffffffffffffffffffffffffffffffffffffff166323b872dd8486611a1c612710611a03600660149054906101000a900461ffff1661ffff1688612a1a90919063ffffffff16565b611a0d9190613ad8565b8661242890919063ffffffff16565b6040518463ffffffff1660e01b8152600401611a3a9392919061349d565b602060405180830381600087803b158015611a5457600080fd5b505af1158015611a68573d6000803e3d6000fd5b505050506040513d601f19601f82011682018060405250810190611a8c9190612d1f565b611acb576040517f08c379a0000000000000000000000000000000000000000000000000000000008152600401611ac290613625565b60405180910390fd5b60006127106002611af9600660149054906101000a900461ffff1661ffff1685612a1a90919063ffffffff16565b611b039190613ad8565b611b0d9190613ad8565b9050600560009054906101000a900473ffffffffffffffffffffffffffffffffffffffff1673ffffffffffffffffffffffffffffffffffffffff166323b872dd85611b56610c95565b846040518463ffffffff1660e01b8152600401611b759392919061349d565b602060405180830381600087803b158015611b8f57600080fd5b505af1158015611ba3573d6000803e3d6000fd5b505050506040513d601f19601f82011682018060405250810190611bc79190612d1f565b611c06576040517f08c379a0000000000000000000000000000000000000000000000000000000008152600401611bfd90613945565b60405180910390fd5b600560009054906101000a900473ffffffffffffffffffffffffffffffffffffffff1673ffffffffffffffffffffffffffffffffffffffff166323b872dd85600660009054906101000a900473ffffffffffffffffffffffffffffffffffffffff16846040518463ffffffff1660e01b8152600401611c879392919061349d565b602060405180830381600087803b158015611ca157600080fd5b505af1158015611cb5573d6000803e3d6000fd5b505050506040513d601f19601f82011682018060405250810190611cd99190612d1f565b611d18576040517f08c379a0000000000000000000000000000000000000000000000000000000008152600401611d0f906136e5565b60405180910390fd5b50611e0f565b600560009054906101000a900473ffffffffffffffffffffffffffffffffffffffff1673ffffffffffffffffffffffffffffffffffffffff166323b872dd8486846040518463ffffffff1660e01b8152600401611d7d9392919061349d565b602060405180830381600087803b158015611d9757600080fd5b505af1158015611dab573d6000803e3d6000fd5b505050506040513d601f19601f82011682018060405250810190611dcf9190612d1f565b611e0e576040517f08c379a0000000000000000000000000000000000000000000000000000000008152600401611e0590613705565b60405180910390fd5b5b611e19898961258a565b8173ffffffffffffffffffffffffffffffffffffffff166342842e0e85858b6040518463ffffffff1660e01b8152600401611e569392919061349d565b600060405180830381600087803b158015611e7057600080fd5b505af1158015611e84573d6000803e3d6000fd5b505050507ea4de3b7e475c80db86cde5db832064b348c17a2bb4e4dab18d7a9bdc8e4ba98584604051611eb89291906139a0565b60405180910390a18496505050505050600180819055505092915050565b600080600260008573ffffffffffffffffffffffffffffffffffffffff1673ffffffffffffffffffffffffffffffffffffffff16815260200190815260200160002060008481526020019081526020016000206004015411905092915050565b611f3e612b69565b6003805490508210611f85576040517f08c379a0000000000000000000000000000000000000000000000000000000008152600401611f7c90613845565b60405180910390fd5b600060038381548110611fc1577f4e487b7100000000000000000000000000000000000000000000000000000000600052603260045260246000fd5b90600052602060002090600202016040518060400160405290816000820160009054906101000a900473ffffffffffffffffffffffffffffffffffffffff1673ffffffffffffffffffffffffffffffffffffffff1673ffffffffffffffffffffffffffffffffffffffff168152602001600182015481525050905060026000826000015173ffffffffffffffffffffffffffffffffffffffff1673ffffffffffffffffffffffffffffffffffffffff1681526020019081526020016000206000826020015181526020019081526020016000206040518060a00160405290816000820160009054906101000a900473ffffffffffffffffffffffffffffffffffffffff1673ffffffffffffffffffffffffffffffffffffffff1673ffffffffffffffffffffffffffffffffffffffff168152602001600182015481526020016002820160009054906101000a900473ffffffffffffffffffffffffffffffffffffffff1673ffffffffffffffffffffffffffffffffffffffff1673ffffffffffffffffffffffffffffffffffffffff16815260200160038201548152602001600482015481525050915050919050565b6002602052816000526040600020602052806000526040600020600091509150508060000160009054906101000a900473ffffffffffffffffffffffffffffffffffffffff16908060010154908060020160009054906101000a900473ffffffffffffffffffffffffffffffffffffffff16908060030154908060040154905085565b6121fc6122e6565b612204612a30565b565b61220e6122e6565b600073ffffffffffffffffffffffffffffffffffffffff168173ffffffffffffffffffffffffffffffffffffffff16141561227e576040517f08c379a000000000000000000000000000000000000000000000000000000000815260040161227590613685565b60405180910390fd5b61228781612364565b50565b6122926122e6565b61229a612a92565b565b6122a4610531565b156122e4576040517f08c379a00000000000000000000000000000000000000000000000000000000081526004016122db90613745565b60405180910390fd5b565b6122ee612af5565b73ffffffffffffffffffffffffffffffffffffffff1661230c610c95565b73ffffffffffffffffffffffffffffffffffffffff1614612362576040517f08c379a000000000000000000000000000000000000000000000000000000000815260040161235990613805565b60405180910390fd5b565b60008060009054906101000a900473ffffffffffffffffffffffffffffffffffffffff169050816000806101000a81548173ffffffffffffffffffffffffffffffffffffffff021916908373ffffffffffffffffffffffffffffffffffffffff1602179055508173ffffffffffffffffffffffffffffffffffffffff168173ffffffffffffffffffffffffffffffffffffffff167f8be0079c531659141344cd1fd0a4f28419497f9722a3daafe3b4186f6b6457e060405160405180910390a35050565b600081836124369190613b63565b905092915050565b6000818361244c9190613a82565b905092915050565b6124738173ffffffffffffffffffffffffffffffffffffffff16612afd565b6124b2576040517f08c379a00000000000000000000000000000000000000000000000000000000081526004016124a9906135e5565b60405180910390fd5b60008190508073ffffffffffffffffffffffffffffffffffffffff166301ffc9a76380ac58cd60e01b6040518263ffffffff1660e01b81526004016124f791906135af565b60206040518083038186803b15801561250f57600080fd5b505afa158015612523573d6000803e3d6000fd5b505050506040513d601f19601f820116820180604052508101906125479190612d1f565b612586576040517f08c379a000000000000000000000000000000000000000000000000000000000815260040161257d90613725565b60405180910390fd5b5050565b6000600260008473ffffffffffffffffffffffffffffffffffffffff1673ffffffffffffffffffffffffffffffffffffffff16815260200190815260200160002060008381526020019081526020016000209050600081600401541415612626576040517f08c379a000000000000000000000000000000000000000000000000000000000815260040161261d906137c5565b60405180910390fd5b60038054905081600401541115612672576040517f08c379a000000000000000000000000000000000000000000000000000000000815260040161266990613865565b60405180910390fd5b600061268c6001836004015461242890919063ffffffff16565b905060006126a9600160038054905061242890919063ffffffff16565b90506000600382815481106126e7577f4e487b7100000000000000000000000000000000000000000000000000000000600052603260045260246000fd5b90600052602060002090600202016040518060400160405290816000820160009054906101000a900473ffffffffffffffffffffffffffffffffffffffff1673ffffffffffffffffffffffffffffffffffffffff1673ffffffffffffffffffffffffffffffffffffffff168152602001600182015481525050905061277660018461243e90919063ffffffff16565b60026000836000015173ffffffffffffffffffffffffffffffffffffffff1673ffffffffffffffffffffffffffffffffffffffff168152602001908152602001600020600083602001518152602001908152602001600020600401819055506003828154811061280f577f4e487b7100000000000000000000000000000000000000000000000000000000600052603260045260246000fd5b906000526020600020906002020160038481548110612857577f4e487b7100000000000000000000000000000000000000000000000000000000600052603260045260246000fd5b90600052602060002090600202016000820160009054906101000a900473ffffffffffffffffffffffffffffffffffffffff168160000160006101000a81548173ffffffffffffffffffffffffffffffffffffffff021916908373ffffffffffffffffffffffffffffffffffffffff160217905550600182015481600101559050506003805480612911577f4e487b7100000000000000000000000000000000000000000000000000000000600052603160045260246000fd5b6001900381819060005260206000209060020201600080820160006101000a81549073ffffffffffffffffffffffffffffffffffffffff0219169055600182016000905550509055600260008773ffffffffffffffffffffffffffffffffffffffff1673ffffffffffffffffffffffffffffffffffffffff1681526020019081526020016000206000868152602001908152602001600020600080820160006101000a81549073ffffffffffffffffffffffffffffffffffffffff021916905560018201600090556002820160006101000a81549073ffffffffffffffffffffffffffffffffffffffff0219169055600382016000905560048201600090555050505050505050565b60008183612a289190613b09565b905092915050565b612a38612b20565b60008060146101000a81548160ff0219169083151502179055507f5db9ee0a495bf2e6ff9c91a7834c1ba4fdd244a5e8aa4e537bd38aeae4b073aa612a7b612af5565b604051612a889190613459565b60405180910390a1565b612a9a61229c565b6001600060146101000a81548160ff0219169083151502179055507f62e78cea01bee320cd4e420270b5ea74000d11b0c9f74754ebdbfc544b05a258612ade612af5565b604051612aeb9190613459565b60405180910390a1565b600033905090565b6000808273ffffffffffffffffffffffffffffffffffffffff163b119050919050565b612b28610531565b612b67576040517f08c379a0000000000000000000000000000000000000000000000000000000008152600401612b5e90613605565b60405180910390fd5b565b6040518060a00160405280600073ffffffffffffffffffffffffffffffffffffffff16815260200160008152602001600073ffffffffffffffffffffffffffffffffffffffff16815260200160008152602001600081525090565b600081359050612bd3816145fd565b92915050565b600081519050612be8816145fd565b92915050565b600081519050612bfd81614614565b92915050565b600081359050612c128161462b565b92915050565b600081359050612c2781614642565b92915050565b600081519050612c3c81614642565b92915050565b600060208284031215612c5457600080fd5b6000612c6284828501612bc4565b91505092915050565b600060208284031215612c7d57600080fd5b6000612c8b84828501612bd9565b91505092915050565b60008060408385031215612ca757600080fd5b6000612cb585828601612bc4565b9250506020612cc685828601612c18565b9150509250929050565b600080600060608486031215612ce557600080fd5b6000612cf386828701612bc4565b9350506020612d0486828701612c18565b9250506040612d1586828701612c18565b9150509250925092565b600060208284031215612d3157600080fd5b6000612d3f84828501612bee565b91505092915050565b600060208284031215612d5a57600080fd5b6000612d6884828501612c03565b91505092915050565b600060208284031215612d8357600080fd5b6000612d9184828501612c18565b91505092915050565b600060208284031215612dac57600080fd5b6000612dba84828501612c2d565b91505092915050565b60008060408385031215612dd657600080fd5b6000612de485828601612c18565b9250506020612df585828601612c18565b9150509250929050565b6000612e0b838361332d565b60408301905092915050565b6000612e23838361335c565b60a08301905092915050565b612e3881613b97565b82525050565b612e4781613b97565b82525050565b6000612e5882613a1f565b612e628185613a4f565b9350612e6d836139ff565b8060005b83811015612e9e578151612e858882612dff565b9750612e9083613a35565b925050600181019050612e71565b5085935050505092915050565b6000612eb682613a2a565b612ec08185613a60565b9350612ecb83613a0f565b8060005b83811015612efc578151612ee38882612e17565b9750612eee83613a42565b925050600181019050612ecf565b5085935050505092915050565b612f1281613ba9565b82525050565b612f2181613bb5565b82525050565b612f3081613c19565b82525050565b6000612f43603183613a71565b9150612f4e82613ce4565b604082019050919050565b6000612f66601483613a71565b9150612f7182613d33565b602082019050919050565b6000612f89603e83613a71565b9150612f9482613d5c565b604082019050919050565b6000612fac602f83613a71565b9150612fb782613dab565b604082019050919050565b6000612fcf602983613a71565b9150612fda82613dfa565b604082019050919050565b6000612ff2602683613a71565b9150612ffd82613e49565b604082019050919050565b6000613015603f83613a71565b915061302082613e98565b604082019050919050565b6000613038604a83613a71565b915061304382613ee7565b606082019050919050565b600061305b604283613a71565b915061306682613f5c565b606082019050919050565b600061307e603e83613a71565b915061308982613fd1565b604082019050919050565b60006130a1603583613a71565b91506130ac82614020565b604082019050919050565b60006130c4601083613a71565b91506130cf8261406f565b602082019050919050565b60006130e7604183613a71565b91506130f282614098565b606082019050919050565b600061310a602c83613a71565b91506131158261410d565b604082019050919050565b600061312d603983613a71565b91506131388261415c565b604082019050919050565b6000613150602c83613a71565b915061315b826141ab565b604082019050919050565b6000613173603c83613a71565b915061317e826141fa565b604082019050919050565b6000613196602083613a71565b91506131a182614249565b602082019050919050565b60006131b9602183613a71565b91506131c482614272565b604082019050919050565b60006131dc602483613a71565b91506131e7826142c1565b604082019050919050565b60006131ff602b83613a71565b915061320a82614310565b604082019050919050565b6000613222604a83613a71565b915061322d8261435f565b606082019050919050565b6000613245601483613a71565b9150613250826143d4565b602082019050919050565b6000613268603e83613a71565b9150613273826143fd565b604082019050919050565b600061328b603e83613a71565b91506132968261444c565b604082019050919050565b60006132ae601f83613a71565b91506132b98261449b565b602082019050919050565b60006132d1604183613a71565b91506132dc826144c4565b606082019050919050565b60006132f4604483613a71565b91506132ff82614539565b606082019050919050565b6000613317602783613a71565b9150613322826145ae565b604082019050919050565b6040820160008201516133436000850182612e2f565b506020820151613356602085018261343b565b50505050565b60a0820160008201516133726000850182612e2f565b506020820151613385602085018261343b565b5060408201516133986040850182612e2f565b5060608201516133ab606085018261343b565b5060808201516133be608085018261343b565b50505050565b60a0820160008201516133da6000850182612e2f565b5060208201516133ed602085018261343b565b5060408201516134006040850182612e2f565b506060820151613413606085018261343b565b506080820151613426608085018261343b565b50505050565b61343581613be1565b82525050565b61344481613c0f565b82525050565b61345381613c0f565b82525050565b600060208201905061346e6000830184612e3e565b92915050565b60006040820190506134896000830185612e3e565b6134966020830184612e3e565b9392505050565b60006060820190506134b26000830186612e3e565b6134bf6020830185612e3e565b6134cc604083018461344a565b949350505050565b60006040820190506134e96000830185612e3e565b6134f6602083018461344a565b9392505050565b600060a0820190506135126000830188612e3e565b61351f602083018761344a565b61352c6040830186612e3e565b613539606083018561344a565b613546608083018461344a565b9695505050505050565b6000602082019050818103600083015261356a8184612e4d565b905092915050565b6000602082019050818103600083015261358c8184612eab565b905092915050565b60006020820190506135a96000830184612f09565b92915050565b60006020820190506135c46000830184612f18565b92915050565b60006020820190506135df6000830184612f27565b92915050565b600060208201905081810360008301526135fe81612f36565b9050919050565b6000602082019050818103600083015261361e81612f59565b9050919050565b6000602082019050818103600083015261363e81612f7c565b9050919050565b6000602082019050818103600083015261365e81612f9f565b9050919050565b6000602082019050818103600083015261367e81612fc2565b9050919050565b6000602082019050818103600083015261369e81612fe5565b9050919050565b600060208201905081810360008301526136be81613008565b9050919050565b600060208201905081810360008301526136de8161302b565b9050919050565b600060208201905081810360008301526136fe8161304e565b9050919050565b6000602082019050818103600083015261371e81613071565b9050919050565b6000602082019050818103600083015261373e81613094565b9050919050565b6000602082019050818103600083015261375e816130b7565b9050919050565b6000602082019050818103600083015261377e816130da565b9050919050565b6000602082019050818103600083015261379e816130fd565b9050919050565b600060208201905081810360008301526137be81613120565b9050919050565b600060208201905081810360008301526137de81613143565b9050919050565b600060208201905081810360008301526137fe81613166565b9050919050565b6000602082019050818103600083015261381e81613189565b9050919050565b6000602082019050818103600083015261383e816131ac565b9050919050565b6000602082019050818103600083015261385e816131cf565b9050919050565b6000602082019050818103600083015261387e816131f2565b9050919050565b6000602082019050818103600083015261389e81613215565b9050919050565b600060208201905081810360008301526138be81613238565b9050919050565b600060208201905081810360008301526138de8161325b565b9050919050565b600060208201905081810360008301526138fe8161327e565b9050919050565b6000602082019050818103600083015261391e816132a1565b9050919050565b6000602082019050818103600083015261393e816132c4565b9050919050565b6000602082019050818103600083015261395e816132e7565b9050919050565b6000602082019050818103600083015261397e8161330a565b9050919050565b600060a08201905061399a60008301846133c4565b92915050565b600060c0820190506139b560008301856133c4565b6139c260a0830184612e3e565b9392505050565b60006020820190506139de600083018461342c565b92915050565b60006020820190506139f9600083018461344a565b92915050565b6000819050602082019050919050565b6000819050602082019050919050565b600081519050919050565b600081519050919050565b6000602082019050919050565b6000602082019050919050565b600082825260208201905092915050565b600082825260208201905092915050565b600082825260208201905092915050565b6000613a8d82613c0f565b9150613a9883613c0f565b9250827fffffffffffffffffffffffffffffffffffffffffffffffffffffffffffffffff03821115613acd57613acc613c86565b5b828201905092915050565b6000613ae382613c0f565b9150613aee83613c0f565b925082613afe57613afd613cb5565b5b828204905092915050565b6000613b1482613c0f565b9150613b1f83613c0f565b9250817fffffffffffffffffffffffffffffffffffffffffffffffffffffffffffffffff0483118215151615613b5857613b57613c86565b5b828202905092915050565b6000613b6e82613c0f565b9150613b7983613c0f565b925082821015613b8c57613b8b613c86565b5b828203905092915050565b6000613ba282613bef565b9050919050565b60008115159050919050565b60007fffffffff0000000000000000000000000000000000000000000000000000000082169050919050565b600061ffff82169050919050565b600073ffffffffffffffffffffffffffffffffffffffff82169050919050565b6000819050919050565b6000613c2482613c2b565b9050919050565b6000613c3682613bef565b9050919050565b6000613c4882613c0f565b91507fffffffffffffffffffffffffffffffffffffffffffffffffffffffffffffffff821415613c7b57613c7a613c86565b5b600182019050919050565b7f4e487b7100000000000000000000000000000000000000000000000000000000600052601160045260246000fd5b7f4e487b7100000000000000000000000000000000000000000000000000000000600052601260045260246000fd5b7f54697073794552433732314d61726b6574706c6163653a20616464726573732060008201527f6973206e6f74206120636f6e7472616374000000000000000000000000000000602082015250565b7f5061757361626c653a206e6f7420706175736564000000000000000000000000600082015250565b7f54697073794552433732314d61726b6574706c6163653a207472616e7366657260008201527f696e67207468652073616c6520616d6f756e74206661696c6564202831290000602082015250565b7f54697073794552433732314d61726b6574706c6163653a20616464726573732060008201527f6e6f742077686974656c69737465640000000000000000000000000000000000602082015250565b7f54697073794552433732314d61726b6574706c6163653a20756e617574686f7260008201527f697a656420757365720000000000000000000000000000000000000000000000602082015250565b7f4f776e61626c653a206e6577206f776e657220697320746865207a65726f206160008201527f6464726573730000000000000000000000000000000000000000000000000000602082015250565b7f54697073794552433732314d61726b6574706c6163653a206f6e6c792074686560008201527f206465762063616e206368616e67652074686520646576206164647265737300602082015250565b7f54697073794552433732314d61726b6574706c6163653a2074686520636f6e7460008201527f72616374206973206e6f7420617574686f72697a656420746f206d616e61676560208201527f2074686520617373657400000000000000000000000000000000000000000000604082015250565b7f54697073794552433732314d61726b6574706c6163653a207472616e7366657260008201527f696e67207468652073616c652066656520746f2074686520646576206661696c60208201527f6564000000000000000000000000000000000000000000000000000000000000604082015250565b7f54697073794552433732314d61726b6574706c6163653a207472616e7366657260008201527f696e67207468652073616c6520616d6f756e74206661696c6564202832290000602082015250565b7f54697073794552433732314d61726b6574706c6163653a20696e76616c69642060008201527f45524337323120696d706c656d656e746174696f6e0000000000000000000000602082015250565b7f5061757361626c653a2070617573656400000000000000000000000000000000600082015250565b7f54697073794552433732314d61726b6574706c6163653a20746865207072696360008201527f65206d757374206265206c6f776572207468616e20746f74616c20737570706c60208201527f7900000000000000000000000000000000000000000000000000000000000000604082015250565b7f54697073794552433732314d61726b6574706c6163653a20656e64206d75737460008201527f206265203e3d2073746172740000000000000000000000000000000000000000602082015250565b7f54697073794552433732314d61726b6574706c6163653a20466565207065726360008201527f656e746167652067726561746572207468616e20313030303000000000000000602082015250565b7f54697073794552433732314d61726b6574706c6163653a206f7264657220646f60008201527f6573206e6f742065786973740000000000000000000000000000000000000000602082015250565b7f54697073794552433732314d61726b6574706c6163653a20746865207072696360008201527f65206d757374206265206174206c656173742032303030302077656900000000602082015250565b7f4f776e61626c653a2063616c6c6572206973206e6f7420746865206f776e6572600082015250565b7f656e64206d757374206265203c206f726465724b65794c6973742e6c656e677460008201527f6800000000000000000000000000000000000000000000000000000000000000602082015250565b7f5f696e646578206d757374206265203c206f726465724b65794c6973742e6c6560008201527f6e67746800000000000000000000000000000000000000000000000000000000602082015250565b7f54697073794552433732314d61726b6574706c6163653a20696e76616c69642060008201527f696e6465782076616c7565000000000000000000000000000000000000000000602082015250565b7f54697073794552433732314d61726b6574706c6163653a207468652073656c6c60008201527f6572206973206e6f206c6f6e67657220746865206f776e6572206f662074686560208201527f204e465420746f6b656e00000000000000000000000000000000000000000000604082015250565b7f4f7264657220646f6573206e6f74206578697374000000000000000000000000600082015250565b7f54697073794552433732314d61726b6574706c6163653a20646576206164647260008201527f6573732063616e6e6f7420626520746865207a65726f20616464726573730000602082015250565b7f54697073794552433732314d61726b6574706c6163653a2073656e646572206d60008201527f7573742062652074686520686f6c646572206f662074686520746f6b656e0000602082015250565b7f5265656e7472616e637947756172643a207265656e7472616e742063616c6c00600082015250565b7f54697073794552433732314d61726b6574706c6163653a206f6e6c792074686560008201527f206f776e6572206f662074686520746f6b656e49642063616e2073656c6c206960208201527f7400000000000000000000000000000000000000000000000000000000000000604082015250565b7f54697073794552433732314d61726b6574706c6163653a207472616e7366657260008201527f696e67207468652073616c652066656520746f20746865206f776e657220666160208201527f696c656400000000000000000000000000000000000000000000000000000000604082015250565b7f54697073794552433732314d61726b6574706c6163653a20696e76616c69642060008201527f6164647265737300000000000000000000000000000000000000000000000000602082015250565b61460681613b97565b811461461157600080fd5b50565b61461d81613ba9565b811461462857600080fd5b50565b61463481613be1565b811461463f57600080fd5b50565b61464b81613c0f565b811461465657600080fd5b5056fea264697066735822122058a94678cfe013bb07767c5cef04ee1dd2e21250624d99d41fccaa7634354d9564736f6c63430008040033",
  "immutableReferences": {},
  "source": "// SPDX-License-Identifier: MIT\n\npragma solidity ^0.8.4;\n\nimport \"@openzeppelin/contracts/utils/Address.sol\";\nimport \"@openzeppelin/contracts/token/ERC20/IERC20.sol\";\nimport \"@openzeppelin/contracts/token/ERC721/IERC721.sol\";\nimport \"@openzeppelin/contracts/access/Ownable.sol\";\nimport \"@openzeppelin/contracts/security/Pausable.sol\";\nimport \"@openzeppelin/contracts/utils/math/SafeMath.sol\";\nimport \"@openzeppelin/contracts/security/ReentrancyGuard.sol\";\n\n/**\n * Allows the exchange (swapping) of ERC-721 tokens for fixed amounts of ERC-20 tokens requested by the seller. \n * The address of the ERC-20 token is configurable.\n * The marketplace sale fee is split in equal amounts and sent to the owner and developer addresses.\n * Contract addresses for supported ERC-721 tokens must be whitelisted.\n */\ncontract TipsyERC721Marketplace is Ownable, Pausable, ReentrancyGuard {\n    using SafeMath for uint256;\n    using Address for address;\n\n    /**\n     * Represents a listing order that is created when a token is \n     * listed for sale at a price desired by the owner.\n     */\n    struct Order {\n        // NFT token owner\n        address seller;\n        // Token id\n        uint256 tokenId;\n        // NFT registry address\n        address nftContract;\n        // Price (in wei) for the listed NFT token\n        uint256 price;\n        // Index in orderKeyList\n        uint256 listIndex;\n    }\n\n    /**\n     * Composite identifier for one Order instance.\n     */\n    struct OrderKey {\n        // NFT registry address\n        address nftContract;\n        // Token id\n        uint256 tokenId;\n    }\n\n    // Maps a Order instance (value) to a NFT token (key). \n    mapping(address => mapping(uint256 => Order)) public orderByAssetId;\n\n    // Current orders stored in array ready for retrieval.\n    OrderKey[] internal orderKeyList;\n\n    // Addresses of NFTs that are allowed for trading.\n    mapping(address => bool) public whitelist;\n\n    // Base token for swaping\n    IERC20 public erc20;\n\n    // Developer address\n    address public dev;\n\n    // The interface ID for the ERC721 contract\n    bytes4 public constant ERC721_Interface = bytes4(0x80ac58cd);\n\n    // Sale fee in basis points (bps). Default value corresponds to 10%. 1bps = 0.01%.\n    uint16 public saleFeePerc = 1000;\n\n    /**\n     * Initializes the contract setting the initial base token, owner and dev addresses.\n     */\n    constructor(\n        address _erc20,\n        address _owner,\n        address _dev\n    ) {\n      transferOwnership(_owner);\n        erc20 = IERC20(_erc20);\n        dev = _dev;\n    }\n\n    /**\n     * Modifier checks that a given address is a NFT contract whitelisted for trading.\n     */\n    modifier onlyWhitelisted(address nftAddress) {\n        require(\n            whitelist[nftAddress],\n            \"TipsyERC721Marketplace: address not whitelisted\"\n        );\n        _;\n    }\n\n    /**\n     * Creates a sell order of a token at a given price.\n     *\n     * Access: all accounts.\n     *\n     * @param nftContract the address of the ERC-721 contract to be listed.\n     * @param tokenId token identifier.\n     * @param price the proposed listing price in base ERC-20 token.\n     */\n    function sell (\n        address nftContract,\n        uint256 tokenId,\n        uint256 price\n    ) public whenNotPaused() onlyWhitelisted(nftContract) nonReentrant() {\n        require(price >= 20000, \"TipsyERC721Marketplace: the price must be at least 20000 wei\");\n        require(\n            price < erc20.totalSupply(),\n            \"TipsyERC721Marketplace: the price must be lower than total supply\"\n        );\n        IERC721 nftRegistry = IERC721(nftContract);\n        address assetOwner = nftRegistry.ownerOf(tokenId);\n\n        require(\n            msg.sender == assetOwner,\n            \"TipsyERC721Marketplace: only the owner of the tokenId can sell it\"\n        );\n        require(\n            nftRegistry.getApproved(tokenId) == address(this) ||\n                nftRegistry.isApprovedForAll(assetOwner, address(this)),\n            \"TipsyERC721Marketplace: the contract is not authorized to manage the asset\"\n        );\n\n        Order storage order = orderByAssetId[nftContract][tokenId];\n        order.nftContract = nftContract;\n        order.seller = msg.sender;\n        order.price = price;\n        order.tokenId = tokenId;\n\n        if (order.listIndex == 0) {\n            orderKeyList.push(\n                OrderKey({nftContract: nftContract, tokenId: tokenId})\n            );\n            order.listIndex = orderKeyList.length;\n        }\n\n        emit TokenListed(tokenId, assetOwner, nftContract, price);\n    }\n\n    /**\n     * Removes the order corresponding to the given NFT address and identifier.\n     *\n     * Access: only the account that holds the token.\n     *\n     * @param nftContract the address of the ERC-721 contract to be listed.\n     * @param tokenId token identifier.\n     */\n    function cancelListing(address nftContract, uint256 tokenId) public whenNotPaused() {\n       IERC721 nftRegistry = IERC721(nftContract);\n        require(\n            nftRegistry.ownerOf(tokenId) == msg.sender,\n            \"TipsyERC721Marketplace: sender must be the holder of the token\"\n        );\n        removeOrder(nftContract, tokenId);\n\n        Order memory order = orderByAssetId[nftContract][tokenId];\n\n        emit TokenCancelled(tokenId, order.seller, nftContract);\n    }\n\n    /**\n     * Transfers the NFT token to the senders account and the ERC20 amount to the sellers account.\n     * Splits the fee equally and transfers the corresponding amounts to the owner and dev addresses.\n     *\n     * Access: all accounts.\n     *\n     * @dev exception when nftContract address is not whitelisted.\n     * @dev exception when order is not found (nftContract, tokenId)\n     * @dev exception when sender does not have enough of erc20 balance\n     * @dev exception when seller does not own tokenId\n     * @dev order is deleted in case of transfer errors\n     * @param nftContract the address of the ERC-721 contract.\n     * @param tokenId identifier of the token to be listed.\n     */\n    function buy(address nftContract, uint256 tokenId)\n        public\n        whenNotPaused()\n        onlyWhitelisted(nftContract)\n        nonReentrant()\n        returns (Order memory)\n    {\n        Order memory order = orderByAssetId[nftContract][tokenId];\n        require(order.listIndex != 0, \"Order does not exist\");\n        address seller = order.seller;\n        address sender = msg.sender;\n        require(seller != address(0), \"TipsyERC721Marketplace: invalid address\");\n        require(seller != sender, \"TipsyERC721Marketplace: unauthorized user\");\n\n        IERC721 nftRegistry = IERC721(nftContract);\n        require(\n            seller == nftRegistry.ownerOf(order.tokenId),\n            \"TipsyERC721Marketplace: the seller is no longer the owner of the NFT token\"\n        );\n\n        uint256 price = order.price;\n        if (saleFeePerc > 0) {\n            require(\n                erc20.transferFrom(\n                    sender,\n                    seller,\n                    (price.sub(((price.mul(saleFeePerc))) / 10000))\n                ),\n                \"TipsyERC721Marketplace: transfering the sale amount failed (1)\"\n            );\n            uint256 halfFee = price.mul(saleFeePerc) / 2 / 10000;\n            require(\n                erc20.transferFrom(sender, owner(), halfFee),\n                \"TipsyERC721Marketplace: transfering the sale fee to the owner failed\"\n            );\n            require(\n                erc20.transferFrom(sender, dev, halfFee),\n                \"TipsyERC721Marketplace: transfering the sale fee to the dev failed\"\n            );\n        } else {\n            require(\n                erc20.transferFrom(sender, seller, price),\n                \"TipsyERC721Marketplace: transfering the sale amount failed (2)\"\n            );\n        }\n        removeOrder(nftContract, tokenId);\n        nftRegistry.safeTransferFrom(seller, sender, tokenId);\n        emit TokenSold(order, sender);\n        return order;\n    }\n\n    /**\n     * Internal helper to remove one sell order.\n     * \n     * @param nftContract the address of the ERC-721 contract to be listed.\n     * @param tokenId token identifier.\n     */\n    function removeOrder(address nftContract, uint256 tokenId) internal {\n        Order storage order = orderByAssetId[nftContract][tokenId];\n\n        require(order.listIndex != 0, \"TipsyERC721Marketplace: order does not exist\");\n        require(order.listIndex <= orderKeyList.length, \"TipsyERC721Marketplace: invalid index value\");\n\n        // Moves the last array element into the vacated key slot.\n        uint256 keyListIndex = order.listIndex.sub(1);\n        uint256 keyListLastIndex = orderKeyList.length.sub(1);\n        OrderKey memory orderKey = orderKeyList[keyListLastIndex];\n        orderByAssetId[orderKey.nftContract][orderKey.tokenId]\n            .listIndex = keyListIndex.add(1);\n        orderKeyList[keyListIndex] = orderKeyList[keyListLastIndex];\n        orderKeyList.pop();\n        delete orderByAssetId[nftContract][tokenId];\n    }\n\n    /**\n     * Updates the marketplace fee.\n     *\n     * Access: only the contract owner account.\n     *\n     * @param newsaleFeePerc percentage fee in basis points (100 basis points correspond to 1%).\n     */\n    function setSaleFee(uint16 newsaleFeePerc) public onlyOwner {\n        require(\n            newsaleFeePerc <= 10000,\n            \"TipsyERC721Marketplace: Fee percentage greater than 10000\"\n        );\n        saleFeePerc = newsaleFeePerc;\n    }\n\n    /**\n     * Changes the address to which the developer fee is transferred.\n     *\n     * Access: only the developer account.\n     *\n     * @param newDev new developer address value.\n     */\n    function changeDevAddress(address newDev) public {\n        require(msg.sender == dev, \"TipsyERC721Marketplace: only the dev can change the dev address\");\n        require(\n            newDev != address(0),\n            \"TipsyERC721Marketplace: dev address cannot be the zero address\"\n        );\n        dev = newDev;\n    }\n\n    /**\n     * Adds an NFT contract address to the whitelist.\n     *\n     * Access: only the contract owner account.\n     *\n     * @param whitelistAddress NFT contract to be whitelisted.\n     */\n    function addWhitelistAddress(address whitelistAddress) public onlyOwner {\n       _requireERC721(whitelistAddress);\n        whitelist[whitelistAddress] = true;\n    }\n\n    /**\n     * Removes an NFT contract address from the whitelist.\n     *\n     * Access: only the contract owner account.\n     *\n     * @param whitelistAddress NFT contract to be removed from the whitelist.\n     */\n    function removeWhitelistAddress(address whitelistAddress) public onlyOwner {\n        whitelist[whitelistAddress] = false;\n    }\n\n    /**\n     * Pauses the ability to call the sell function.\n     *\n     * Access: only the contract owner account.\n     */\n    function pauseListings() public onlyOwner {\n        _pause();\n    }\n\n    /**\n     * Resumes the ability to call the sell function.\n     *\n     * Access: only the contract owner account.\n     */\n    function unpauseListings() public onlyOwner {\n        _unpause();\n    }\n\n    /**\n     * Returns a list containing all the order keys.\n     *\n     * Access: all acounts\n     */\n    function getOrderKeys() public view returns (OrderKey[] memory) {\n        return orderKeyList;\n    }\n\n    /**\n     * Returns the size of the order list.\n     *\n     * Access: all acounts\n     */\n    function orderListSize() public view returns (uint256) {\n        return orderKeyList.length;\n    }\n\n    /**\n     * Returns whether or not a certain token is listed.\n     *\n     * Access: all acounts\n     *\n     * @param nftContract NFT contract address of the token.\n     * @param tokenId token identifier.\n     */\n    function orderListContains(address nftContract, uint256 tokenId)\n        public\n        view\n        returns (bool)\n    {\n        return orderByAssetId[nftContract][tokenId].listIndex > 0;\n    }\n\n    /**\n     * Returns an order from the order list based on an index\n     *\n     * Access: all acounts\n     *\n     * @param _index index in order list.\n     */\n    function getOrderByIndex(uint256 _index) public view returns (Order memory) {\n        require(_index < orderKeyList.length, \"_index must be < orderKeyList.length\");\n        OrderKey memory orderKey = orderKeyList[_index];\n        return orderByAssetId[orderKey.nftContract][orderKey.tokenId];\n    }\n\n    /**\n     * Returns an array containing all orders.  \n     *\n     * Access: all acounts\n     * \n     * @param start the start index (0-based)\n     * @param end the end index (0-based)\n     */\n    function getOrders(uint256 start, uint256 end) public view returns (Order[] memory) {\n        require(end >= start, \"TipsyERC721Marketplace: end must be >= start\");\n        require(end < orderKeyList.length, \"end must be < orderKeyList.length\");\n\n        uint256 sliceLength = SafeMath.add(SafeMath.sub(end, start), 1);\n        Order[] memory slice = new Order[](sliceLength);\n\n        for (uint256 arrIdx = 0; arrIdx < sliceLength; arrIdx++) {\n            OrderKey memory currentOrderKey = orderKeyList[arrIdx];\n            slice[arrIdx] = orderByAssetId[currentOrderKey.nftContract][currentOrderKey.tokenId];\n        }\n        return slice;\n    }\n\n    /**\n     * Utility method to check that an address is a ERC721 contract.\n     */\n    function _requireERC721(address nftContract) internal view {\n        require(\n            nftContract.isContract(),\n            \"TipsyERC721Marketplace: address is not a contract\"\n        );\n       IERC721 nftRegistry = IERC721(nftContract);\n        require(\n            nftRegistry.supportsInterface(ERC721_Interface),\n            \"TipsyERC721Marketplace: invalid ERC721 implementation\"\n        );\n    }\n\n    /**\n     * Event for one token listing.\n     */\n    event TokenListed(\n        uint256 indexed assetId,\n        address indexed seller,\n        address nftAddress,\n        uint256 priceInWei\n    );\n\n    /**\n     * Event for one token sell.\n     */\n    event TokenSold(Order order, address newOwner);\n\n    /**\n     * Event for cancelling one token listing.\n     */\n    event TokenCancelled(\n        uint256 indexed assetId,\n        address indexed seller,\n        address nftAddress\n    );\n}",
  "sourcePath": "/home/sergiu/Desktop/FInalPresentation/Debug/contracts/TipsyERC721Marketplace.sol",
  "compiler": {
    "name": "solc",
    "version": "0.8.4+commit.c7e474f2.Emscripten.clang"
  },
  "schemaVersion": "3.4.9",
  "updatedAt": "2022-09-07T19:27:39.021Z",
  "networkType": "ethereum",
  "devdoc": {
    "kind": "dev",
    "methods": {
      "addWhitelistAddress(address)": {
        "params": {
          "whitelistAddress": "NFT contract to be whitelisted."
        }
      },
      "buy(address,uint256)": {
        "details": "exception when nftContract address is not whitelisted.exception when order is not found (nftContract, tokenId)exception when sender does not have enough of erc20 balanceexception when seller does not own tokenIdorder is deleted in case of transfer errors",
        "params": {
          "nftContract": "the address of the ERC-721 contract.",
          "tokenId": "identifier of the token to be listed."
        }
      },
      "cancelListing(address,uint256)": {
        "params": {
          "nftContract": "the address of the ERC-721 contract to be listed.",
          "tokenId": "token identifier."
        }
      },
      "changeDevAddress(address)": {
        "params": {
          "newDev": "new developer address value."
        }
      },
      "getOrderByIndex(uint256)": {
        "params": {
          "_index": "index in order list."
        }
      },
      "getOrders(uint256,uint256)": {
        "params": {
          "end": "the end index (0-based)",
          "start": "the start index (0-based)"
        }
      },
      "orderListContains(address,uint256)": {
        "params": {
          "nftContract": "NFT contract address of the token.",
          "tokenId": "token identifier."
        }
      },
      "owner()": {
        "details": "Returns the address of the current owner."
      },
      "paused()": {
        "details": "Returns true if the contract is paused, and false otherwise."
      },
      "removeWhitelistAddress(address)": {
        "params": {
          "whitelistAddress": "NFT contract to be removed from the whitelist."
        }
      },
      "renounceOwnership()": {
        "details": "Leaves the contract without owner. It will not be possible to call `onlyOwner` functions anymore. Can only be called by the current owner. NOTE: Renouncing ownership will leave the contract without an owner, thereby removing any functionality that is only available to the owner."
      },
      "sell(address,uint256,uint256)": {
        "params": {
          "nftContract": "the address of the ERC-721 contract to be listed.",
          "price": "the proposed listing price in base ERC-20 token.",
          "tokenId": "token identifier."
        }
      },
      "setSaleFee(uint16)": {
        "params": {
          "newsaleFeePerc": "percentage fee in basis points (100 basis points correspond to 1%)."
        }
      },
      "transferOwnership(address)": {
        "details": "Transfers ownership of the contract to a new account (`newOwner`). Can only be called by the current owner."
      }
    },
    "version": 1
  },
  "userdoc": {
    "events": {
      "TokenCancelled(uint256,address,address)": {
        "notice": "Event for cancelling one token listing."
      },
      "TokenListed(uint256,address,address,uint256)": {
        "notice": "Event for one token listing."
      },
      "TokenSold((address,uint256,address,uint256,uint256),address)": {
        "notice": "Event for one token sell."
      }
    },
    "kind": "user",
    "methods": {
      "addWhitelistAddress(address)": {
        "notice": "Adds an NFT contract address to the whitelist. Access: only the contract owner account."
      },
      "buy(address,uint256)": {
        "notice": "Transfers the NFT token to the senders account and the ERC20 amount to the sellers account. Splits the fee equally and transfers the corresponding amounts to the owner and dev addresses. Access: all accounts."
      },
      "cancelListing(address,uint256)": {
        "notice": "Removes the order corresponding to the given NFT address and identifier. Access: only the account that holds the token."
      },
      "changeDevAddress(address)": {
        "notice": "Changes the address to which the developer fee is transferred. Access: only the developer account."
      },
      "constructor": {
        "notice": "Initializes the contract setting the initial base token, owner and dev addresses."
      },
      "getOrderByIndex(uint256)": {
        "notice": "Returns an order from the order list based on an index Access: all acounts"
      },
      "getOrderKeys()": {
        "notice": "Returns a list containing all the order keys. Access: all acounts"
      },
      "getOrders(uint256,uint256)": {
        "notice": "Returns an array containing all orders.   Access: all acounts "
      },
      "orderListContains(address,uint256)": {
        "notice": "Returns whether or not a certain token is listed. Access: all acounts"
      },
      "orderListSize()": {
        "notice": "Returns the size of the order list. Access: all acounts"
      },
      "pauseListings()": {
        "notice": "Pauses the ability to call the sell function. Access: only the contract owner account."
      },
      "removeWhitelistAddress(address)": {
        "notice": "Removes an NFT contract address from the whitelist. Access: only the contract owner account."
      },
      "sell(address,uint256,uint256)": {
        "notice": "Creates a sell order of a token at a given price. Access: all accounts."
      },
      "setSaleFee(uint16)": {
        "notice": "Updates the marketplace fee. Access: only the contract owner account."
      },
      "unpauseListings()": {
        "notice": "Resumes the ability to call the sell function. Access: only the contract owner account."
      }
    },
    "notice": "Allows the exchange (swapping) of ERC-721 tokens for fixed amounts of ERC-20 tokens requested by the seller.  The address of the ERC-20 token is configurable. The marketplace sale fee is split in equal amounts and sent to the owner and developer addresses. Contract addresses for supported ERC-721 tokens must be whitelisted.",
    "version": 1
  }
}